{"contracts/Certificate.sol":{"Certificate":{"abi":[{"anonymous":false,"inputs":[{"indexed":true,"internalType":"uint256","name":"certId","type":"uint256"},{"indexed":false,"internalType":"string","name":"student","type":"string"},{"indexed":false,"internalType":"string","name":"course","type":"string"},{"indexed":false,"internalType":"string","name":"org","type":"string"},{"indexed":true,"internalType":"address","name":"issuer","type":"address"},{"indexed":false,"internalType":"uint256","name":"issuedAt","type":"uint256"}],"name":"CertificateIssued","type":"event"},{"inputs":[],"name":"certificateCount","outputs":[{"internalType":"uint256","name":"","type":"uint256"}],"stateMutability":"view","type":"function"},{"inputs":[{"internalType":"uint256","name":"","type":"uint256"}],"name":"certificates","outputs":[{"internalType":"string","name":"student","type":"string"},{"internalType":"string","name":"course","type":"string"},{"internalType":"string","name":"org","type":"string"},{"internalType":"address","name":"issuer","type":"address"},{"internalType":"uint256","name":"issuedAt","type":"uint256"}],"stateMutability":"view","type":"function"},{"inputs":[{"internalType":"address","name":"issuer","type":"address"}],"name":"getCertIdsByIssuer","outputs":[{"internalType":"uint256[]","name":"","type":"uint256[]"}],"stateMutability":"view","type":"function"},{"inputs":[{"internalType":"uint256","name":"certId","type":"uint256"}],"name":"getCertificate","outputs":[{"components":[{"internalType":"string","name":"student","type":"string"},{"internalType":"string","name":"course","type":"string"},{"internalType":"string","name":"org","type":"string"},{"internalType":"address","name":"issuer","type":"address"},{"internalType":"uint256","name":"issuedAt","type":"uint256"}],"internalType":"struct Certificate.Cert","name":"","type":"tuple"}],"stateMutability":"view","type":"function"},{"inputs":[{"internalType":"string","name":"student","type":"string"},{"internalType":"string","name":"course","type":"string"},{"internalType":"string","name":"org","type":"string"}],"name":"issueCertificate","outputs":[{"internalType":"uint256","name":"","type":"uint256"}],"stateMutability":"nonpayable","type":"function"}],"evm":{"bytecode":{"linkReferences":{},"object":"6080604052348015600f57600080fd5b5061147d8061001f6000396000f3fe608060405234801561001057600080fd5b50600436106100575760003560e01c806351640fee1461005c57806352d7b89c1461008c578063663b3e22146100aa578063b6fb04ef146100de578063beec1caa1461010e575b600080fd5b61007660048036038101906100719190610a02565b61013e565b6040516100839190610b93565b60405180910390f35b610094610381565b6040516100a19190610bc4565b60405180910390f35b6100c460048036038101906100bf9190610a02565b610387565b6040516100d5959493929190610c38565b60405180910390f35b6100f860048036038101906100f39190610ccc565b610575565b6040516101059190610da8565b60405180910390f35b61012860048036038101906101239190610e2f565b61060c565b6040516101359190610bc4565b60405180910390f35b61014661097d565b600160008381526020019081526020016000206040518060a001604052908160008201805461017490610f12565b80601f01602080910402602001604051908101604052809291908181526020018280546101a090610f12565b80156101ed5780601f106101c2576101008083540402835291602001916101ed565b820191906000526020600020905b8154815290600101906020018083116101d057829003601f168201915b5050505050815260200160018201805461020690610f12565b80601f016020809104026020016040519081016040528092919081815260200182805461023290610f12565b801561027f5780601f106102545761010080835404028352916020019161027f565b820191906000526020600020905b81548152906001019060200180831161026257829003601f168201915b5050505050815260200160028201805461029890610f12565b80601f01602080910402602001604051908101604052809291908181526020018280546102c490610f12565b80156103115780601f106102e657610100808354040283529160200191610311565b820191906000526020600020905b8154815290600101906020018083116102f457829003601f168201915b505050505081526020016003820160009054906101000a900473ffffffffffffffffffffffffffffffffffffffff1673ffffffffffffffffffffffffffffffffffffffff1673ffffffffffffffffffffffffffffffffffffffff1681526020016004820154815250509050919050565b60005481565b60016020528060005260406000206000915090508060000180546103aa90610f12565b80601f01602080910402602001604051908101604052809291908181526020018280546103d690610f12565b80156104235780601f106103f857610100808354040283529160200191610423565b820191906000526020600020905b81548152906001019060200180831161040657829003601f168201915b50505050509080600101805461043890610f12565b80601f016020809104026020016040519081016040528092919081815260200182805461046490610f12565b80156104b15780601f10610486576101008083540402835291602001916104b1565b820191906000526020600020905b81548152906001019060200180831161049457829003601f168201915b5050505050908060020180546104c690610f12565b80601f01602080910402602001604051908101604052809291908181526020018280546104f290610f12565b801561053f5780601f106105145761010080835404028352916020019161053f565b820191906000526020600020905b81548152906001019060200180831161052257829003601f168201915b5050505050908060030160009054906101000a900473ffffffffffffffffffffffffffffffffffffffff16908060040154905085565b6060600260008373ffffffffffffffffffffffffffffffffffffffff1673ffffffffffffffffffffffffffffffffffffffff16815260200190815260200160002080548060200260200160405190810160405280929190818152602001828054801561060057602002820191906000526020600020905b8154815260200190600101908083116105ec575b50505050509050919050565b6000808787905011610653576040517f08c379a000000000000000000000000000000000000000000000000000000000815260040161064a90610f8f565b60405180910390fd5b60008585905011610699576040517f08c379a000000000000000000000000000000000000000000000000000000000815260040161069090610ffb565b60405180910390fd5b600083839050116106df576040517f08c379a00000000000000000000000000000000000000000000000000000000081526004016106d690611067565b60405180910390fd5b6000808154809291906106f1906110b6565b91905055506040518060a0016040528088888080601f016020809104026020016040519081016040528093929190818152602001838380828437600081840152601f19601f82011690508083019250505050505050815260200186868080601f016020809104026020016040519081016040528093929190818152602001838380828437600081840152601f19601f82011690508083019250505050505050815260200184848080601f016020809104026020016040519081016040528093929190818152602001838380828437600081840152601f19601f8201169050808301925050505050505081526020013373ffffffffffffffffffffffffffffffffffffffff168152602001428152506001600080548152602001908152602001600020600082015181600001908161082891906112d9565b50602082015181600101908161083e91906112d9565b50604082015181600201908161085491906112d9565b5060608201518160030160006101000a81548173ffffffffffffffffffffffffffffffffffffffff021916908373ffffffffffffffffffffffffffffffffffffffff16021790555060808201518160040155905050600260003373ffffffffffffffffffffffffffffffffffffffff1673ffffffffffffffffffffffffffffffffffffffff16815260200190815260200160002060005490806001815401808255809150506001900390600052602060002001600090919091909150553373ffffffffffffffffffffffffffffffffffffffff166000547f68b901c431a211531ba3d723417a83156b41b40e438dffd6964720fe01b336ab8989898989894260405161096697969594939291906113e7565b60405180910390a360005490509695505050505050565b6040518060a00160405280606081526020016060815260200160608152602001600073ffffffffffffffffffffffffffffffffffffffff168152602001600081525090565b600080fd5b600080fd5b6000819050919050565b6109df816109cc565b81146109ea57600080fd5b50565b6000813590506109fc816109d6565b92915050565b600060208284031215610a1857610a176109c2565b5b6000610a26848285016109ed565b91505092915050565b600081519050919050565b600082825260208201905092915050565b60005b83811015610a69578082015181840152602081019050610a4e565b60008484015250505050565b6000601f19601f8301169050919050565b6000610a9182610a2f565b610a9b8185610a3a565b9350610aab818560208601610a4b565b610ab481610a75565b840191505092915050565b600073ffffffffffffffffffffffffffffffffffffffff82169050919050565b6000610aea82610abf565b9050919050565b610afa81610adf565b82525050565b610b09816109cc565b82525050565b600060a0830160008301518482036000860152610b2c8282610a86565b91505060208301518482036020860152610b468282610a86565b91505060408301518482036040860152610b608282610a86565b9150506060830151610b756060860182610af1565b506080830151610b886080860182610b00565b508091505092915050565b60006020820190508181036000830152610bad8184610b0f565b905092915050565b610bbe816109cc565b82525050565b6000602082019050610bd96000830184610bb5565b92915050565b600082825260208201905092915050565b6000610bfb82610a2f565b610c058185610bdf565b9350610c15818560208601610a4b565b610c1e81610a75565b840191505092915050565b610c3281610adf565b82525050565b600060a0820190508181036000830152610c528188610bf0565b90508181036020830152610c668187610bf0565b90508181036040830152610c7a8186610bf0565b9050610c896060830185610c29565b610c966080830184610bb5565b9695505050505050565b610ca981610adf565b8114610cb457600080fd5b50565b600081359050610cc681610ca0565b92915050565b600060208284031215610ce257610ce16109c2565b5b6000610cf084828501610cb7565b91505092915050565b600081519050919050565b600082825260208201905092915050565b6000819050602082019050919050565b6000610d318383610b00565b60208301905092915050565b6000602082019050919050565b6000610d5582610cf9565b610d5f8185610d04565b9350610d6a83610d15565b8060005b83811015610d9b578151610d828882610d25565b9750610d8d83610d3d565b925050600181019050610d6e565b5085935050505092915050565b60006020820190508181036000830152610dc28184610d4a565b905092915050565b600080fd5b600080fd5b600080fd5b60008083601f840112610def57610dee610dca565b5b8235905067ffffffffffffffff811115610e0c57610e0b610dcf565b5b602083019150836001820283011115610e2857610e27610dd4565b5b9250929050565b60008060008060008060608789031215610e4c57610e4b6109c2565b5b600087013567ffffffffffffffff811115610e6a57610e696109c7565b5b610e7689828a01610dd9565b9650965050602087013567ffffffffffffffff811115610e9957610e986109c7565b5b610ea589828a01610dd9565b9450945050604087013567ffffffffffffffff811115610ec857610ec76109c7565b5b610ed489828a01610dd9565b92509250509295509295509295565b7f4e487b7100000000000000000000000000000000000000000000000000000000600052602260045260246000fd5b60006002820490506001821680610f2a57607f821691505b602082108103610f3d57610f3c610ee3565b5b50919050565b7f53747564656e7420726571756972656400000000000000000000000000000000600082015250565b6000610f79601083610bdf565b9150610f8482610f43565b602082019050919050565b60006020820190508181036000830152610fa881610f6c565b9050919050565b7f436f757273652072657175697265640000000000000000000000000000000000600082015250565b6000610fe5600f83610bdf565b9150610ff082610faf565b602082019050919050565b6000602082019050818103600083015261101481610fd8565b9050919050565b7f4f7267616e697a6174696f6e2072657175697265640000000000000000000000600082015250565b6000611051601583610bdf565b915061105c8261101b565b602082019050919050565b6000602082019050818103600083015261108081611044565b9050919050565b7f4e487b7100000000000000000000000000000000000000000000000000000000600052601160045260246000fd5b60006110c1826109cc565b91507fffffffffffffffffffffffffffffffffffffffffffffffffffffffffffffffff82036110f3576110f2611087565b5b600182019050919050565b7f4e487b7100000000000000000000000000000000000000000000000000000000600052604160045260246000fd5b60008190508160005260206000209050919050565b60006020601f8301049050919050565b600082821b905092915050565b60006008830261118f7fffffffffffffffffffffffffffffffffffffffffffffffffffffffffffffffff82611152565b6111998683611152565b95508019841693508086168417925050509392505050565b6000819050919050565b60006111d66111d16111cc846109cc565b6111b1565b6109cc565b9050919050565b6000819050919050565b6111f0836111bb565b6112046111fc826111dd565b84845461115f565b825550505050565b600090565b61121961120c565b6112248184846111e7565b505050565b5b818110156112485761123d600082611211565b60018101905061122a565b5050565b601f82111561128d5761125e8161112d565b61126784611142565b81016020851015611276578190505b61128a61128285611142565b830182611229565b50505b505050565b600082821c905092915050565b60006112b060001984600802611292565b1980831691505092915050565b60006112c9838361129f565b9150826002028217905092915050565b6112e282610a2f565b67ffffffffffffffff8111156112fb576112fa6110fe565b5b6113058254610f12565b61131082828561124c565b600060209050601f8311600181146113435760008415611331578287015190505b61133b85826112bd565b8655506113a3565b601f1984166113518661112d565b60005b8281101561137957848901518255600182019150602085019450602081019050611354565b868310156113965784890151611392601f89168261129f565b8355505b6001600288020188555050505b505050505050565b82818337600083830152505050565b60006113c68385610bdf565b93506113d38385846113ab565b6113dc83610a75565b840190509392505050565b6000608082019050818103600083015261140281898b6113ba565b905081810360208301526114178187896113ba565b9050818103604083015261142c8185876113ba565b905061143b6060830184610bb5565b9897505050505050505056fea2646970667358221220a31ab2233249608c90064a220e96f813f9e38f36989968597c3846594a311ce364736f6c634300081c0033","opcodes":"PUSH1 0x80 PUSH1 0x40 MSTORE CALLVALUE DUP1 ISZERO PUSH1 0xF JUMPI PUSH1 0x0 DUP1 REVERT JUMPDEST POP PUSH2 0x147D DUP1 PUSH2 0x1F PUSH1 0x0 CODECOPY PUSH1 0x0 RETURN INVALID PUSH1 0x80 PUSH1 0x40 MSTORE CALLVALUE DUP1 ISZERO PUSH2 0x10 JUMPI PUSH1 0x0 DUP1 REVERT JUMPDEST POP PUSH1 0x4 CALLDATASIZE LT PUSH2 0x57 JUMPI PUSH1 0x0 CALLDATALOAD PUSH1 0xE0 SHR DUP1 PUSH4 0x51640FEE EQ PUSH2 0x5C JUMPI DUP1 PUSH4 0x52D7B89C EQ PUSH2 0x8C JUMPI DUP1 PUSH4 0x663B3E22 EQ PUSH2 0xAA JUMPI DUP1 PUSH4 0xB6FB04EF EQ PUSH2 0xDE JUMPI DUP1 PUSH4 0xBEEC1CAA EQ PUSH2 0x10E JUMPI JUMPDEST PUSH1 0x0 DUP1 REVERT JUMPDEST PUSH2 0x76 PUSH1 0x4 DUP1 CALLDATASIZE SUB DUP2 ADD SWAP1 PUSH2 0x71 SWAP2 SWAP1 PUSH2 0xA02 JUMP JUMPDEST PUSH2 0x13E JUMP JUMPDEST PUSH1 0x40 MLOAD PUSH2 0x83 SWAP2 SWAP1 PUSH2 0xB93 JUMP JUMPDEST PUSH1 0x40 MLOAD DUP1 SWAP2 SUB SWAP1 RETURN JUMPDEST PUSH2 0x94 PUSH2 0x381 JUMP JUMPDEST PUSH1 0x40 MLOAD PUSH2 0xA1 SWAP2 SWAP1 PUSH2 0xBC4 JUMP JUMPDEST PUSH1 0x40 MLOAD DUP1 SWAP2 SUB SWAP1 RETURN JUMPDEST PUSH2 0xC4 PUSH1 0x4 DUP1 CALLDATASIZE SUB DUP2 ADD SWAP1 PUSH2 0xBF SWAP2 SWAP1 PUSH2 0xA02 JUMP JUMPDEST PUSH2 0x387 JUMP JUMPDEST PUSH1 0x40 MLOAD PUSH2 0xD5 SWAP6 SWAP5 SWAP4 SWAP3 SWAP2 SWAP1 PUSH2 0xC38 JUMP JUMPDEST PUSH1 0x40 MLOAD DUP1 SWAP2 SUB SWAP1 RETURN JUMPDEST PUSH2 0xF8 PUSH1 0x4 DUP1 CALLDATASIZE SUB DUP2 ADD SWAP1 PUSH2 0xF3 SWAP2 SWAP1 PUSH2 0xCCC JUMP JUMPDEST PUSH2 0x575 JUMP JUMPDEST PUSH1 0x40 MLOAD PUSH2 0x105 SWAP2 SWAP1 PUSH2 0xDA8 JUMP JUMPDEST PUSH1 0x40 MLOAD DUP1 SWAP2 SUB SWAP1 RETURN JUMPDEST PUSH2 0x128 PUSH1 0x4 DUP1 CALLDATASIZE SUB DUP2 ADD SWAP1 PUSH2 0x123 SWAP2 SWAP1 PUSH2 0xE2F JUMP JUMPDEST PUSH2 0x60C JUMP JUMPDEST PUSH1 0x40 MLOAD PUSH2 0x135 SWAP2 SWAP1 PUSH2 0xBC4 JUMP JUMPDEST PUSH1 0x40 MLOAD DUP1 SWAP2 SUB SWAP1 RETURN JUMPDEST PUSH2 0x146 PUSH2 0x97D JUMP JUMPDEST PUSH1 0x1 PUSH1 0x0 DUP4 DUP2 MSTORE PUSH1 0x20 ADD SWAP1 DUP2 MSTORE PUSH1 0x20 ADD PUSH1 0x0 KECCAK256 PUSH1 0x40 MLOAD DUP1 PUSH1 0xA0 ADD PUSH1 0x40 MSTORE SWAP1 DUP2 PUSH1 0x0 DUP3 ADD DUP1 SLOAD PUSH2 0x174 SWAP1 PUSH2 0xF12 JUMP JUMPDEST DUP1 PUSH1 0x1F ADD PUSH1 0x20 DUP1 SWAP2 DIV MUL PUSH1 0x20 ADD PUSH1 0x40 MLOAD SWAP1 DUP2 ADD PUSH1 0x40 MSTORE DUP1 SWAP3 SWAP2 SWAP1 DUP2 DUP2 MSTORE PUSH1 0x20 ADD DUP3 DUP1 SLOAD PUSH2 0x1A0 SWAP1 PUSH2 0xF12 JUMP JUMPDEST DUP1 ISZERO PUSH2 0x1ED JUMPI DUP1 PUSH1 0x1F LT PUSH2 0x1C2 JUMPI PUSH2 0x100 DUP1 DUP4 SLOAD DIV MUL DUP4 MSTORE SWAP2 PUSH1 0x20 ADD SWAP2 PUSH2 0x1ED JUMP JUMPDEST DUP3 ADD SWAP2 SWAP1 PUSH1 0x0 MSTORE PUSH1 0x20 PUSH1 0x0 KECCAK256 SWAP1 JUMPDEST DUP2 SLOAD DUP2 MSTORE SWAP1 PUSH1 0x1 ADD SWAP1 PUSH1 0x20 ADD DUP1 DUP4 GT PUSH2 0x1D0 JUMPI DUP3 SWAP1 SUB PUSH1 0x1F AND DUP3 ADD SWAP2 JUMPDEST POP POP POP POP POP DUP2 MSTORE PUSH1 0x20 ADD PUSH1 0x1 DUP3 ADD DUP1 SLOAD PUSH2 0x206 SWAP1 PUSH2 0xF12 JUMP JUMPDEST DUP1 PUSH1 0x1F ADD PUSH1 0x20 DUP1 SWAP2 DIV MUL PUSH1 0x20 ADD PUSH1 0x40 MLOAD SWAP1 DUP2 ADD PUSH1 0x40 MSTORE DUP1 SWAP3 SWAP2 SWAP1 DUP2 DUP2 MSTORE PUSH1 0x20 ADD DUP3 DUP1 SLOAD PUSH2 0x232 SWAP1 PUSH2 0xF12 JUMP JUMPDEST DUP1 ISZERO PUSH2 0x27F JUMPI DUP1 PUSH1 0x1F LT PUSH2 0x254 JUMPI PUSH2 0x100 DUP1 DUP4 SLOAD DIV MUL DUP4 MSTORE SWAP2 PUSH1 0x20 ADD SWAP2 PUSH2 0x27F JUMP JUMPDEST DUP3 ADD SWAP2 SWAP1 PUSH1 0x0 MSTORE PUSH1 0x20 PUSH1 0x0 KECCAK256 SWAP1 JUMPDEST DUP2 SLOAD DUP2 MSTORE SWAP1 PUSH1 0x1 ADD SWAP1 PUSH1 0x20 ADD DUP1 DUP4 GT PUSH2 0x262 JUMPI DUP3 SWAP1 SUB PUSH1 0x1F AND DUP3 ADD SWAP2 JUMPDEST POP POP POP POP POP DUP2 MSTORE PUSH1 0x20 ADD PUSH1 0x2 DUP3 ADD DUP1 SLOAD PUSH2 0x298 SWAP1 PUSH2 0xF12 JUMP JUMPDEST DUP1 PUSH1 0x1F ADD PUSH1 0x20 DUP1 SWAP2 DIV MUL PUSH1 0x20 ADD PUSH1 0x40 MLOAD SWAP1 DUP2 ADD PUSH1 0x40 MSTORE DUP1 SWAP3 SWAP2 SWAP1 DUP2 DUP2 MSTORE PUSH1 0x20 ADD DUP3 DUP1 SLOAD PUSH2 0x2C4 SWAP1 PUSH2 0xF12 JUMP JUMPDEST DUP1 ISZERO PUSH2 0x311 JUMPI DUP1 PUSH1 0x1F LT PUSH2 0x2E6 JUMPI PUSH2 0x100 DUP1 DUP4 SLOAD DIV MUL DUP4 MSTORE SWAP2 PUSH1 0x20 ADD SWAP2 PUSH2 0x311 JUMP JUMPDEST DUP3 ADD SWAP2 SWAP1 PUSH1 0x0 MSTORE PUSH1 0x20 PUSH1 0x0 KECCAK256 SWAP1 JUMPDEST DUP2 SLOAD DUP2 MSTORE SWAP1 PUSH1 0x1 ADD SWAP1 PUSH1 0x20 ADD DUP1 DUP4 GT PUSH2 0x2F4 JUMPI DUP3 SWAP1 SUB PUSH1 0x1F AND DUP3 ADD SWAP2 JUMPDEST POP POP POP POP POP DUP2 MSTORE PUSH1 0x20 ADD PUSH1 0x3 DUP3 ADD PUSH1 0x0 SWAP1 SLOAD SWAP1 PUSH2 0x100 EXP SWAP1 DIV PUSH20 0xFFFFFFFFFFFFFFFFFFFFFFFFFFFFFFFFFFFFFFFF AND PUSH20 0xFFFFFFFFFFFFFFFFFFFFFFFFFFFFFFFFFFFFFFFF AND PUSH20 0xFFFFFFFFFFFFFFFFFFFFFFFFFFFFFFFFFFFFFFFF AND DUP2 MSTORE PUSH1 0x20 ADD PUSH1 0x4 DUP3 ADD SLOAD DUP2 MSTORE POP POP SWAP1 POP SWAP2 SWAP1 POP JUMP JUMPDEST PUSH1 0x0 SLOAD DUP2 JUMP JUMPDEST PUSH1 0x1 PUSH1 0x20 MSTORE DUP1 PUSH1 0x0 MSTORE PUSH1 0x40 PUSH1 0x0 KECCAK256 PUSH1 0x0 SWAP2 POP SWAP1 POP DUP1 PUSH1 0x0 ADD DUP1 SLOAD PUSH2 0x3AA SWAP1 PUSH2 0xF12 JUMP JUMPDEST DUP1 PUSH1 0x1F ADD PUSH1 0x20 DUP1 SWAP2 DIV MUL PUSH1 0x20 ADD PUSH1 0x40 MLOAD SWAP1 DUP2 ADD PUSH1 0x40 MSTORE DUP1 SWAP3 SWAP2 SWAP1 DUP2 DUP2 MSTORE PUSH1 0x20 ADD DUP3 DUP1 SLOAD PUSH2 0x3D6 SWAP1 PUSH2 0xF12 JUMP JUMPDEST DUP1 ISZERO PUSH2 0x423 JUMPI DUP1 PUSH1 0x1F LT PUSH2 0x3F8 JUMPI PUSH2 0x100 DUP1 DUP4 SLOAD DIV MUL DUP4 MSTORE SWAP2 PUSH1 0x20 ADD SWAP2 PUSH2 0x423 JUMP JUMPDEST DUP3 ADD SWAP2 SWAP1 PUSH1 0x0 MSTORE PUSH1 0x20 PUSH1 0x0 KECCAK256 SWAP1 JUMPDEST DUP2 SLOAD DUP2 MSTORE SWAP1 PUSH1 0x1 ADD SWAP1 PUSH1 0x20 ADD DUP1 DUP4 GT PUSH2 0x406 JUMPI DUP3 SWAP1 SUB PUSH1 0x1F AND DUP3 ADD SWAP2 JUMPDEST POP POP POP POP POP SWAP1 DUP1 PUSH1 0x1 ADD DUP1 SLOAD PUSH2 0x438 SWAP1 PUSH2 0xF12 JUMP JUMPDEST DUP1 PUSH1 0x1F ADD PUSH1 0x20 DUP1 SWAP2 DIV MUL PUSH1 0x20 ADD PUSH1 0x40 MLOAD SWAP1 DUP2 ADD PUSH1 0x40 MSTORE DUP1 SWAP3 SWAP2 SWAP1 DUP2 DUP2 MSTORE PUSH1 0x20 ADD DUP3 DUP1 SLOAD PUSH2 0x464 SWAP1 PUSH2 0xF12 JUMP JUMPDEST DUP1 ISZERO PUSH2 0x4B1 JUMPI DUP1 PUSH1 0x1F LT PUSH2 0x486 JUMPI PUSH2 0x100 DUP1 DUP4 SLOAD DIV MUL DUP4 MSTORE SWAP2 PUSH1 0x20 ADD SWAP2 PUSH2 0x4B1 JUMP JUMPDEST DUP3 ADD SWAP2 SWAP1 PUSH1 0x0 MSTORE PUSH1 0x20 PUSH1 0x0 KECCAK256 SWAP1 JUMPDEST DUP2 SLOAD DUP2 MSTORE SWAP1 PUSH1 0x1 ADD SWAP1 PUSH1 0x20 ADD DUP1 DUP4 GT PUSH2 0x494 JUMPI DUP3 SWAP1 SUB PUSH1 0x1F AND DUP3 ADD SWAP2 JUMPDEST POP POP POP POP POP SWAP1 DUP1 PUSH1 0x2 ADD DUP1 SLOAD PUSH2 0x4C6 SWAP1 PUSH2 0xF12 JUMP JUMPDEST DUP1 PUSH1 0x1F ADD PUSH1 0x20 DUP1 SWAP2 DIV MUL PUSH1 0x20 ADD PUSH1 0x40 MLOAD SWAP1 DUP2 ADD PUSH1 0x40 MSTORE DUP1 SWAP3 SWAP2 SWAP1 DUP2 DUP2 MSTORE PUSH1 0x20 ADD DUP3 DUP1 SLOAD PUSH2 0x4F2 SWAP1 PUSH2 0xF12 JUMP JUMPDEST DUP1 ISZERO PUSH2 0x53F JUMPI DUP1 PUSH1 0x1F LT PUSH2 0x514 JUMPI PUSH2 0x100 DUP1 DUP4 SLOAD DIV MUL DUP4 MSTORE SWAP2 PUSH1 0x20 ADD SWAP2 PUSH2 0x53F JUMP JUMPDEST DUP3 ADD SWAP2 SWAP1 PUSH1 0x0 MSTORE PUSH1 0x20 PUSH1 0x0 KECCAK256 SWAP1 JUMPDEST DUP2 SLOAD DUP2 MSTORE SWAP1 PUSH1 0x1 ADD SWAP1 PUSH1 0x20 ADD DUP1 DUP4 GT PUSH2 0x522 JUMPI DUP3 SWAP1 SUB PUSH1 0x1F AND DUP3 ADD SWAP2 JUMPDEST POP POP POP POP POP SWAP1 DUP1 PUSH1 0x3 ADD PUSH1 0x0 SWAP1 SLOAD SWAP1 PUSH2 0x100 EXP SWAP1 DIV PUSH20 0xFFFFFFFFFFFFFFFFFFFFFFFFFFFFFFFFFFFFFFFF AND SWAP1 DUP1 PUSH1 0x4 ADD SLOAD SWAP1 POP DUP6 JUMP JUMPDEST PUSH1 0x60 PUSH1 0x2 PUSH1 0x0 DUP4 PUSH20 0xFFFFFFFFFFFFFFFFFFFFFFFFFFFFFFFFFFFFFFFF AND PUSH20 0xFFFFFFFFFFFFFFFFFFFFFFFFFFFFFFFFFFFFFFFF AND DUP2 MSTORE PUSH1 0x20 ADD SWAP1 DUP2 MSTORE PUSH1 0x20 ADD PUSH1 0x0 KECCAK256 DUP1 SLOAD DUP1 PUSH1 0x20 MUL PUSH1 0x20 ADD PUSH1 0x40 MLOAD SWAP1 DUP2 ADD PUSH1 0x40 MSTORE DUP1 SWAP3 SWAP2 SWAP1 DUP2 DUP2 MSTORE PUSH1 0x20 ADD DUP3 DUP1 SLOAD DUP1 ISZERO PUSH2 0x600 JUMPI PUSH1 0x20 MUL DUP3 ADD SWAP2 SWAP1 PUSH1 0x0 MSTORE PUSH1 0x20 PUSH1 0x0 KECCAK256 SWAP1 JUMPDEST DUP2 SLOAD DUP2 MSTORE PUSH1 0x20 ADD SWAP1 PUSH1 0x1 ADD SWAP1 DUP1 DUP4 GT PUSH2 0x5EC JUMPI JUMPDEST POP POP POP POP POP SWAP1 POP SWAP2 SWAP1 POP JUMP JUMPDEST PUSH1 0x0 DUP1 DUP8 DUP8 SWAP1 POP GT PUSH2 0x653 JUMPI PUSH1 0x40 MLOAD PUSH32 0x8C379A000000000000000000000000000000000000000000000000000000000 DUP2 MSTORE PUSH1 0x4 ADD PUSH2 0x64A SWAP1 PUSH2 0xF8F JUMP JUMPDEST PUSH1 0x40 MLOAD DUP1 SWAP2 SUB SWAP1 REVERT JUMPDEST PUSH1 0x0 DUP6 DUP6 SWAP1 POP GT PUSH2 0x699 JUMPI PUSH1 0x40 MLOAD PUSH32 0x8C379A000000000000000000000000000000000000000000000000000000000 DUP2 MSTORE PUSH1 0x4 ADD PUSH2 0x690 SWAP1 PUSH2 0xFFB JUMP JUMPDEST PUSH1 0x40 MLOAD DUP1 SWAP2 SUB SWAP1 REVERT JUMPDEST PUSH1 0x0 DUP4 DUP4 SWAP1 POP GT PUSH2 0x6DF JUMPI PUSH1 0x40 MLOAD PUSH32 0x8C379A000000000000000000000000000000000000000000000000000000000 DUP2 MSTORE PUSH1 0x4 ADD PUSH2 0x6D6 SWAP1 PUSH2 0x1067 JUMP JUMPDEST PUSH1 0x40 MLOAD DUP1 SWAP2 SUB SWAP1 REVERT JUMPDEST PUSH1 0x0 DUP1 DUP2 SLOAD DUP1 SWAP3 SWAP2 SWAP1 PUSH2 0x6F1 SWAP1 PUSH2 0x10B6 JUMP JUMPDEST SWAP2 SWAP1 POP SSTORE POP PUSH1 0x40 MLOAD DUP1 PUSH1 0xA0 ADD PUSH1 0x40 MSTORE DUP1 DUP9 DUP9 DUP1 DUP1 PUSH1 0x1F ADD PUSH1 0x20 DUP1 SWAP2 DIV MUL PUSH1 0x20 ADD PUSH1 0x40 MLOAD SWAP1 DUP2 ADD PUSH1 0x40 MSTORE DUP1 SWAP4 SWAP3 SWAP2 SWAP1 DUP2 DUP2 MSTORE PUSH1 0x20 ADD DUP4 DUP4 DUP1 DUP3 DUP5 CALLDATACOPY PUSH1 0x0 DUP2 DUP5 ADD MSTORE PUSH1 0x1F NOT PUSH1 0x1F DUP3 ADD AND SWAP1 POP DUP1 DUP4 ADD SWAP3 POP POP POP POP POP POP POP DUP2 MSTORE PUSH1 0x20 ADD DUP7 DUP7 DUP1 DUP1 PUSH1 0x1F ADD PUSH1 0x20 DUP1 SWAP2 DIV MUL PUSH1 0x20 ADD PUSH1 0x40 MLOAD SWAP1 DUP2 ADD PUSH1 0x40 MSTORE DUP1 SWAP4 SWAP3 SWAP2 SWAP1 DUP2 DUP2 MSTORE PUSH1 0x20 ADD DUP4 DUP4 DUP1 DUP3 DUP5 CALLDATACOPY PUSH1 0x0 DUP2 DUP5 ADD MSTORE PUSH1 0x1F NOT PUSH1 0x1F DUP3 ADD AND SWAP1 POP DUP1 DUP4 ADD SWAP3 POP POP POP POP POP POP POP DUP2 MSTORE PUSH1 0x20 ADD DUP5 DUP5 DUP1 DUP1 PUSH1 0x1F ADD PUSH1 0x20 DUP1 SWAP2 DIV MUL PUSH1 0x20 ADD PUSH1 0x40 MLOAD SWAP1 DUP2 ADD PUSH1 0x40 MSTORE DUP1 SWAP4 SWAP3 SWAP2 SWAP1 DUP2 DUP2 MSTORE PUSH1 0x20 ADD DUP4 DUP4 DUP1 DUP3 DUP5 CALLDATACOPY PUSH1 0x0 DUP2 DUP5 ADD MSTORE PUSH1 0x1F NOT PUSH1 0x1F DUP3 ADD AND SWAP1 POP DUP1 DUP4 ADD SWAP3 POP POP POP POP POP POP POP DUP2 MSTORE PUSH1 0x20 ADD CALLER PUSH20 0xFFFFFFFFFFFFFFFFFFFFFFFFFFFFFFFFFFFFFFFF AND DUP2 MSTORE PUSH1 0x20 ADD TIMESTAMP DUP2 MSTORE POP PUSH1 0x1 PUSH1 0x0 DUP1 SLOAD DUP2 MSTORE PUSH1 0x20 ADD SWAP1 DUP2 MSTORE PUSH1 0x20 ADD PUSH1 0x0 KECCAK256 PUSH1 0x0 DUP3 ADD MLOAD DUP2 PUSH1 0x0 ADD SWAP1 DUP2 PUSH2 0x828 SWAP2 SWAP1 PUSH2 0x12D9 JUMP JUMPDEST POP PUSH1 0x20 DUP3 ADD MLOAD DUP2 PUSH1 0x1 ADD SWAP1 DUP2 PUSH2 0x83E SWAP2 SWAP1 PUSH2 0x12D9 JUMP JUMPDEST POP PUSH1 0x40 DUP3 ADD MLOAD DUP2 PUSH1 0x2 ADD SWAP1 DUP2 PUSH2 0x854 SWAP2 SWAP1 PUSH2 0x12D9 JUMP JUMPDEST POP PUSH1 0x60 DUP3 ADD MLOAD DUP2 PUSH1 0x3 ADD PUSH1 0x0 PUSH2 0x100 EXP DUP2 SLOAD DUP2 PUSH20 0xFFFFFFFFFFFFFFFFFFFFFFFFFFFFFFFFFFFFFFFF MUL NOT AND SWAP1 DUP4 PUSH20 0xFFFFFFFFFFFFFFFFFFFFFFFFFFFFFFFFFFFFFFFF AND MUL OR SWAP1 SSTORE POP PUSH1 0x80 DUP3 ADD MLOAD DUP2 PUSH1 0x4 ADD SSTORE SWAP1 POP POP PUSH1 0x2 PUSH1 0x0 CALLER PUSH20 0xFFFFFFFFFFFFFFFFFFFFFFFFFFFFFFFFFFFFFFFF AND PUSH20 0xFFFFFFFFFFFFFFFFFFFFFFFFFFFFFFFFFFFFFFFF AND DUP2 MSTORE PUSH1 0x20 ADD SWAP1 DUP2 MSTORE PUSH1 0x20 ADD PUSH1 0x0 KECCAK256 PUSH1 0x0 SLOAD SWAP1 DUP1 PUSH1 0x1 DUP2 SLOAD ADD DUP1 DUP3 SSTORE DUP1 SWAP2 POP POP PUSH1 0x1 SWAP1 SUB SWAP1 PUSH1 0x0 MSTORE PUSH1 0x20 PUSH1 0x0 KECCAK256 ADD PUSH1 0x0 SWAP1 SWAP2 SWAP1 SWAP2 SWAP1 SWAP2 POP SSTORE CALLER PUSH20 0xFFFFFFFFFFFFFFFFFFFFFFFFFFFFFFFFFFFFFFFF AND PUSH1 0x0 SLOAD PUSH32 0x68B901C431A211531BA3D723417A83156B41B40E438DFFD6964720FE01B336AB DUP10 DUP10 DUP10 DUP10 DUP10 DUP10 TIMESTAMP PUSH1 0x40 MLOAD PUSH2 0x966 SWAP8 SWAP7 SWAP6 SWAP5 SWAP4 SWAP3 SWAP2 SWAP1 PUSH2 0x13E7 JUMP JUMPDEST PUSH1 0x40 MLOAD DUP1 SWAP2 SUB SWAP1 LOG3 PUSH1 0x0 SLOAD SWAP1 POP SWAP7 SWAP6 POP POP POP POP POP POP JUMP JUMPDEST PUSH1 0x40 MLOAD DUP1 PUSH1 0xA0 ADD PUSH1 0x40 MSTORE DUP1 PUSH1 0x60 DUP2 MSTORE PUSH1 0x20 ADD PUSH1 0x60 DUP2 MSTORE PUSH1 0x20 ADD PUSH1 0x60 DUP2 MSTORE PUSH1 0x20 ADD PUSH1 0x0 PUSH20 0xFFFFFFFFFFFFFFFFFFFFFFFFFFFFFFFFFFFFFFFF AND DUP2 MSTORE PUSH1 0x20 ADD PUSH1 0x0 DUP2 MSTORE POP SWAP1 JUMP JUMPDEST PUSH1 0x0 DUP1 REVERT JUMPDEST PUSH1 0x0 DUP1 REVERT JUMPDEST PUSH1 0x0 DUP2 SWAP1 POP SWAP2 SWAP1 POP JUMP JUMPDEST PUSH2 0x9DF DUP2 PUSH2 0x9CC JUMP JUMPDEST DUP2 EQ PUSH2 0x9EA JUMPI PUSH1 0x0 DUP1 REVERT JUMPDEST POP JUMP JUMPDEST PUSH1 0x0 DUP2 CALLDATALOAD SWAP1 POP PUSH2 0x9FC DUP2 PUSH2 0x9D6 JUMP JUMPDEST SWAP3 SWAP2 POP POP JUMP JUMPDEST PUSH1 0x0 PUSH1 0x20 DUP3 DUP5 SUB SLT ISZERO PUSH2 0xA18 JUMPI PUSH2 0xA17 PUSH2 0x9C2 JUMP JUMPDEST JUMPDEST PUSH1 0x0 PUSH2 0xA26 DUP5 DUP3 DUP6 ADD PUSH2 0x9ED JUMP JUMPDEST SWAP2 POP POP SWAP3 SWAP2 POP POP JUMP JUMPDEST PUSH1 0x0 DUP2 MLOAD SWAP1 POP SWAP2 SWAP1 POP JUMP JUMPDEST PUSH1 0x0 DUP3 DUP3 MSTORE PUSH1 0x20 DUP3 ADD SWAP1 POP SWAP3 SWAP2 POP POP JUMP JUMPDEST PUSH1 0x0 JUMPDEST DUP4 DUP2 LT ISZERO PUSH2 0xA69 JUMPI DUP1 DUP3 ADD MLOAD DUP2 DUP5 ADD MSTORE PUSH1 0x20 DUP2 ADD SWAP1 POP PUSH2 0xA4E JUMP JUMPDEST PUSH1 0x0 DUP5 DUP5 ADD MSTORE POP POP POP POP JUMP JUMPDEST PUSH1 0x0 PUSH1 0x1F NOT PUSH1 0x1F DUP4 ADD AND SWAP1 POP SWAP2 SWAP1 POP JUMP JUMPDEST PUSH1 0x0 PUSH2 0xA91 DUP3 PUSH2 0xA2F JUMP JUMPDEST PUSH2 0xA9B DUP2 DUP6 PUSH2 0xA3A JUMP JUMPDEST SWAP4 POP PUSH2 0xAAB DUP2 DUP6 PUSH1 0x20 DUP7 ADD PUSH2 0xA4B JUMP JUMPDEST PUSH2 0xAB4 DUP2 PUSH2 0xA75 JUMP JUMPDEST DUP5 ADD SWAP2 POP POP SWAP3 SWAP2 POP POP JUMP JUMPDEST PUSH1 0x0 PUSH20 0xFFFFFFFFFFFFFFFFFFFFFFFFFFFFFFFFFFFFFFFF DUP3 AND SWAP1 POP SWAP2 SWAP1 POP JUMP JUMPDEST PUSH1 0x0 PUSH2 0xAEA DUP3 PUSH2 0xABF JUMP JUMPDEST SWAP1 POP SWAP2 SWAP1 POP JUMP JUMPDEST PUSH2 0xAFA DUP2 PUSH2 0xADF JUMP JUMPDEST DUP3 MSTORE POP POP JUMP JUMPDEST PUSH2 0xB09 DUP2 PUSH2 0x9CC JUMP JUMPDEST DUP3 MSTORE POP POP JUMP JUMPDEST PUSH1 0x0 PUSH1 0xA0 DUP4 ADD PUSH1 0x0 DUP4 ADD MLOAD DUP5 DUP3 SUB PUSH1 0x0 DUP7 ADD MSTORE PUSH2 0xB2C DUP3 DUP3 PUSH2 0xA86 JUMP JUMPDEST SWAP2 POP POP PUSH1 0x20 DUP4 ADD MLOAD DUP5 DUP3 SUB PUSH1 0x20 DUP7 ADD MSTORE PUSH2 0xB46 DUP3 DUP3 PUSH2 0xA86 JUMP JUMPDEST SWAP2 POP POP PUSH1 0x40 DUP4 ADD MLOAD DUP5 DUP3 SUB PUSH1 0x40 DUP7 ADD MSTORE PUSH2 0xB60 DUP3 DUP3 PUSH2 0xA86 JUMP JUMPDEST SWAP2 POP POP PUSH1 0x60 DUP4 ADD MLOAD PUSH2 0xB75 PUSH1 0x60 DUP7 ADD DUP3 PUSH2 0xAF1 JUMP JUMPDEST POP PUSH1 0x80 DUP4 ADD MLOAD PUSH2 0xB88 PUSH1 0x80 DUP7 ADD DUP3 PUSH2 0xB00 JUMP JUMPDEST POP DUP1 SWAP2 POP POP SWAP3 SWAP2 POP POP JUMP JUMPDEST PUSH1 0x0 PUSH1 0x20 DUP3 ADD SWAP1 POP DUP2 DUP2 SUB PUSH1 0x0 DUP4 ADD MSTORE PUSH2 0xBAD DUP2 DUP5 PUSH2 0xB0F JUMP JUMPDEST SWAP1 POP SWAP3 SWAP2 POP POP JUMP JUMPDEST PUSH2 0xBBE DUP2 PUSH2 0x9CC JUMP JUMPDEST DUP3 MSTORE POP POP JUMP JUMPDEST PUSH1 0x0 PUSH1 0x20 DUP3 ADD SWAP1 POP PUSH2 0xBD9 PUSH1 0x0 DUP4 ADD DUP5 PUSH2 0xBB5 JUMP JUMPDEST SWAP3 SWAP2 POP POP JUMP JUMPDEST PUSH1 0x0 DUP3 DUP3 MSTORE PUSH1 0x20 DUP3 ADD SWAP1 POP SWAP3 SWAP2 POP POP JUMP JUMPDEST PUSH1 0x0 PUSH2 0xBFB DUP3 PUSH2 0xA2F JUMP JUMPDEST PUSH2 0xC05 DUP2 DUP6 PUSH2 0xBDF JUMP JUMPDEST SWAP4 POP PUSH2 0xC15 DUP2 DUP6 PUSH1 0x20 DUP7 ADD PUSH2 0xA4B JUMP JUMPDEST PUSH2 0xC1E DUP2 PUSH2 0xA75 JUMP JUMPDEST DUP5 ADD SWAP2 POP POP SWAP3 SWAP2 POP POP JUMP JUMPDEST PUSH2 0xC32 DUP2 PUSH2 0xADF JUMP JUMPDEST DUP3 MSTORE POP POP JUMP JUMPDEST PUSH1 0x0 PUSH1 0xA0 DUP3 ADD SWAP1 POP DUP2 DUP2 SUB PUSH1 0x0 DUP4 ADD MSTORE PUSH2 0xC52 DUP2 DUP9 PUSH2 0xBF0 JUMP JUMPDEST SWAP1 POP DUP2 DUP2 SUB PUSH1 0x20 DUP4 ADD MSTORE PUSH2 0xC66 DUP2 DUP8 PUSH2 0xBF0 JUMP JUMPDEST SWAP1 POP DUP2 DUP2 SUB PUSH1 0x40 DUP4 ADD MSTORE PUSH2 0xC7A DUP2 DUP7 PUSH2 0xBF0 JUMP JUMPDEST SWAP1 POP PUSH2 0xC89 PUSH1 0x60 DUP4 ADD DUP6 PUSH2 0xC29 JUMP JUMPDEST PUSH2 0xC96 PUSH1 0x80 DUP4 ADD DUP5 PUSH2 0xBB5 JUMP JUMPDEST SWAP7 SWAP6 POP POP POP POP POP POP JUMP JUMPDEST PUSH2 0xCA9 DUP2 PUSH2 0xADF JUMP JUMPDEST DUP2 EQ PUSH2 0xCB4 JUMPI PUSH1 0x0 DUP1 REVERT JUMPDEST POP JUMP JUMPDEST PUSH1 0x0 DUP2 CALLDATALOAD SWAP1 POP PUSH2 0xCC6 DUP2 PUSH2 0xCA0 JUMP JUMPDEST SWAP3 SWAP2 POP POP JUMP JUMPDEST PUSH1 0x0 PUSH1 0x20 DUP3 DUP5 SUB SLT ISZERO PUSH2 0xCE2 JUMPI PUSH2 0xCE1 PUSH2 0x9C2 JUMP JUMPDEST JUMPDEST PUSH1 0x0 PUSH2 0xCF0 DUP5 DUP3 DUP6 ADD PUSH2 0xCB7 JUMP JUMPDEST SWAP2 POP POP SWAP3 SWAP2 POP POP JUMP JUMPDEST PUSH1 0x0 DUP2 MLOAD SWAP1 POP SWAP2 SWAP1 POP JUMP JUMPDEST PUSH1 0x0 DUP3 DUP3 MSTORE PUSH1 0x20 DUP3 ADD SWAP1 POP SWAP3 SWAP2 POP POP JUMP JUMPDEST PUSH1 0x0 DUP2 SWAP1 POP PUSH1 0x20 DUP3 ADD SWAP1 POP SWAP2 SWAP1 POP JUMP JUMPDEST PUSH1 0x0 PUSH2 0xD31 DUP4 DUP4 PUSH2 0xB00 JUMP JUMPDEST PUSH1 0x20 DUP4 ADD SWAP1 POP SWAP3 SWAP2 POP POP JUMP JUMPDEST PUSH1 0x0 PUSH1 0x20 DUP3 ADD SWAP1 POP SWAP2 SWAP1 POP JUMP JUMPDEST PUSH1 0x0 PUSH2 0xD55 DUP3 PUSH2 0xCF9 JUMP JUMPDEST PUSH2 0xD5F DUP2 DUP6 PUSH2 0xD04 JUMP JUMPDEST SWAP4 POP PUSH2 0xD6A DUP4 PUSH2 0xD15 JUMP JUMPDEST DUP1 PUSH1 0x0 JUMPDEST DUP4 DUP2 LT ISZERO PUSH2 0xD9B JUMPI DUP2 MLOAD PUSH2 0xD82 DUP9 DUP3 PUSH2 0xD25 JUMP JUMPDEST SWAP8 POP PUSH2 0xD8D DUP4 PUSH2 0xD3D JUMP JUMPDEST SWAP3 POP POP PUSH1 0x1 DUP2 ADD SWAP1 POP PUSH2 0xD6E JUMP JUMPDEST POP DUP6 SWAP4 POP POP POP POP SWAP3 SWAP2 POP POP JUMP JUMPDEST PUSH1 0x0 PUSH1 0x20 DUP3 ADD SWAP1 POP DUP2 DUP2 SUB PUSH1 0x0 DUP4 ADD MSTORE PUSH2 0xDC2 DUP2 DUP5 PUSH2 0xD4A JUMP JUMPDEST SWAP1 POP SWAP3 SWAP2 POP POP JUMP JUMPDEST PUSH1 0x0 DUP1 REVERT JUMPDEST PUSH1 0x0 DUP1 REVERT JUMPDEST PUSH1 0x0 DUP1 REVERT JUMPDEST PUSH1 0x0 DUP1 DUP4 PUSH1 0x1F DUP5 ADD SLT PUSH2 0xDEF JUMPI PUSH2 0xDEE PUSH2 0xDCA JUMP JUMPDEST JUMPDEST DUP3 CALLDATALOAD SWAP1 POP PUSH8 0xFFFFFFFFFFFFFFFF DUP2 GT ISZERO PUSH2 0xE0C JUMPI PUSH2 0xE0B PUSH2 0xDCF JUMP JUMPDEST JUMPDEST PUSH1 0x20 DUP4 ADD SWAP2 POP DUP4 PUSH1 0x1 DUP3 MUL DUP4 ADD GT ISZERO PUSH2 0xE28 JUMPI PUSH2 0xE27 PUSH2 0xDD4 JUMP JUMPDEST JUMPDEST SWAP3 POP SWAP3 SWAP1 POP JUMP JUMPDEST PUSH1 0x0 DUP1 PUSH1 0x0 DUP1 PUSH1 0x0 DUP1 PUSH1 0x60 DUP8 DUP10 SUB SLT ISZERO PUSH2 0xE4C JUMPI PUSH2 0xE4B PUSH2 0x9C2 JUMP JUMPDEST JUMPDEST PUSH1 0x0 DUP8 ADD CALLDATALOAD PUSH8 0xFFFFFFFFFFFFFFFF DUP2 GT ISZERO PUSH2 0xE6A JUMPI PUSH2 0xE69 PUSH2 0x9C7 JUMP JUMPDEST JUMPDEST PUSH2 0xE76 DUP10 DUP3 DUP11 ADD PUSH2 0xDD9 JUMP JUMPDEST SWAP7 POP SWAP7 POP POP PUSH1 0x20 DUP8 ADD CALLDATALOAD PUSH8 0xFFFFFFFFFFFFFFFF DUP2 GT ISZERO PUSH2 0xE99 JUMPI PUSH2 0xE98 PUSH2 0x9C7 JUMP JUMPDEST JUMPDEST PUSH2 0xEA5 DUP10 DUP3 DUP11 ADD PUSH2 0xDD9 JUMP JUMPDEST SWAP5 POP SWAP5 POP POP PUSH1 0x40 DUP8 ADD CALLDATALOAD PUSH8 0xFFFFFFFFFFFFFFFF DUP2 GT ISZERO PUSH2 0xEC8 JUMPI PUSH2 0xEC7 PUSH2 0x9C7 JUMP JUMPDEST JUMPDEST PUSH2 0xED4 DUP10 DUP3 DUP11 ADD PUSH2 0xDD9 JUMP JUMPDEST SWAP3 POP SWAP3 POP POP SWAP3 SWAP6 POP SWAP3 SWAP6 POP SWAP3 SWAP6 JUMP JUMPDEST PUSH32 0x4E487B7100000000000000000000000000000000000000000000000000000000 PUSH1 0x0 MSTORE PUSH1 0x22 PUSH1 0x4 MSTORE PUSH1 0x24 PUSH1 0x0 REVERT JUMPDEST PUSH1 0x0 PUSH1 0x2 DUP3 DIV SWAP1 POP PUSH1 0x1 DUP3 AND DUP1 PUSH2 0xF2A JUMPI PUSH1 0x7F DUP3 AND SWAP2 POP JUMPDEST PUSH1 0x20 DUP3 LT DUP2 SUB PUSH2 0xF3D JUMPI PUSH2 0xF3C PUSH2 0xEE3 JUMP JUMPDEST JUMPDEST POP SWAP2 SWAP1 POP JUMP JUMPDEST PUSH32 0x53747564656E7420726571756972656400000000000000000000000000000000 PUSH1 0x0 DUP3 ADD MSTORE POP JUMP JUMPDEST PUSH1 0x0 PUSH2 0xF79 PUSH1 0x10 DUP4 PUSH2 0xBDF JUMP JUMPDEST SWAP2 POP PUSH2 0xF84 DUP3 PUSH2 0xF43 JUMP JUMPDEST PUSH1 0x20 DUP3 ADD SWAP1 POP SWAP2 SWAP1 POP JUMP JUMPDEST PUSH1 0x0 PUSH1 0x20 DUP3 ADD SWAP1 POP DUP2 DUP2 SUB PUSH1 0x0 DUP4 ADD MSTORE PUSH2 0xFA8 DUP2 PUSH2 0xF6C JUMP JUMPDEST SWAP1 POP SWAP2 SWAP1 POP JUMP JUMPDEST PUSH32 0x436F757273652072657175697265640000000000000000000000000000000000 PUSH1 0x0 DUP3 ADD MSTORE POP JUMP JUMPDEST PUSH1 0x0 PUSH2 0xFE5 PUSH1 0xF DUP4 PUSH2 0xBDF JUMP JUMPDEST SWAP2 POP PUSH2 0xFF0 DUP3 PUSH2 0xFAF JUMP JUMPDEST PUSH1 0x20 DUP3 ADD SWAP1 POP SWAP2 SWAP1 POP JUMP JUMPDEST PUSH1 0x0 PUSH1 0x20 DUP3 ADD SWAP1 POP DUP2 DUP2 SUB PUSH1 0x0 DUP4 ADD MSTORE PUSH2 0x1014 DUP2 PUSH2 0xFD8 JUMP JUMPDEST SWAP1 POP SWAP2 SWAP1 POP JUMP JUMPDEST PUSH32 0x4F7267616E697A6174696F6E2072657175697265640000000000000000000000 PUSH1 0x0 DUP3 ADD MSTORE POP JUMP JUMPDEST PUSH1 0x0 PUSH2 0x1051 PUSH1 0x15 DUP4 PUSH2 0xBDF JUMP JUMPDEST SWAP2 POP PUSH2 0x105C DUP3 PUSH2 0x101B JUMP JUMPDEST PUSH1 0x20 DUP3 ADD SWAP1 POP SWAP2 SWAP1 POP JUMP JUMPDEST PUSH1 0x0 PUSH1 0x20 DUP3 ADD SWAP1 POP DUP2 DUP2 SUB PUSH1 0x0 DUP4 ADD MSTORE PUSH2 0x1080 DUP2 PUSH2 0x1044 JUMP JUMPDEST SWAP1 POP SWAP2 SWAP1 POP JUMP JUMPDEST PUSH32 0x4E487B7100000000000000000000000000000000000000000000000000000000 PUSH1 0x0 MSTORE PUSH1 0x11 PUSH1 0x4 MSTORE PUSH1 0x24 PUSH1 0x0 REVERT JUMPDEST PUSH1 0x0 PUSH2 0x10C1 DUP3 PUSH2 0x9CC JUMP JUMPDEST SWAP2 POP PUSH32 0xFFFFFFFFFFFFFFFFFFFFFFFFFFFFFFFFFFFFFFFFFFFFFFFFFFFFFFFFFFFFFFFF DUP3 SUB PUSH2 0x10F3 JUMPI PUSH2 0x10F2 PUSH2 0x1087 JUMP JUMPDEST JUMPDEST PUSH1 0x1 DUP3 ADD SWAP1 POP SWAP2 SWAP1 POP JUMP JUMPDEST PUSH32 0x4E487B7100000000000000000000000000000000000000000000000000000000 PUSH1 0x0 MSTORE PUSH1 0x41 PUSH1 0x4 MSTORE PUSH1 0x24 PUSH1 0x0 REVERT JUMPDEST PUSH1 0x0 DUP2 SWAP1 POP DUP2 PUSH1 0x0 MSTORE PUSH1 0x20 PUSH1 0x0 KECCAK256 SWAP1 POP SWAP2 SWAP1 POP JUMP JUMPDEST PUSH1 0x0 PUSH1 0x20 PUSH1 0x1F DUP4 ADD DIV SWAP1 POP SWAP2 SWAP1 POP JUMP JUMPDEST PUSH1 0x0 DUP3 DUP3 SHL SWAP1 POP SWAP3 SWAP2 POP POP JUMP JUMPDEST PUSH1 0x0 PUSH1 0x8 DUP4 MUL PUSH2 0x118F PUSH32 0xFFFFFFFFFFFFFFFFFFFFFFFFFFFFFFFFFFFFFFFFFFFFFFFFFFFFFFFFFFFFFFFF DUP3 PUSH2 0x1152 JUMP JUMPDEST PUSH2 0x1199 DUP7 DUP4 PUSH2 0x1152 JUMP JUMPDEST SWAP6 POP DUP1 NOT DUP5 AND SWAP4 POP DUP1 DUP7 AND DUP5 OR SWAP3 POP POP POP SWAP4 SWAP3 POP POP POP JUMP JUMPDEST PUSH1 0x0 DUP2 SWAP1 POP SWAP2 SWAP1 POP JUMP JUMPDEST PUSH1 0x0 PUSH2 0x11D6 PUSH2 0x11D1 PUSH2 0x11CC DUP5 PUSH2 0x9CC JUMP JUMPDEST PUSH2 0x11B1 JUMP JUMPDEST PUSH2 0x9CC JUMP JUMPDEST SWAP1 POP SWAP2 SWAP1 POP JUMP JUMPDEST PUSH1 0x0 DUP2 SWAP1 POP SWAP2 SWAP1 POP JUMP JUMPDEST PUSH2 0x11F0 DUP4 PUSH2 0x11BB JUMP JUMPDEST PUSH2 0x1204 PUSH2 0x11FC DUP3 PUSH2 0x11DD JUMP JUMPDEST DUP5 DUP5 SLOAD PUSH2 0x115F JUMP JUMPDEST DUP3 SSTORE POP POP POP POP JUMP JUMPDEST PUSH1 0x0 SWAP1 JUMP JUMPDEST PUSH2 0x1219 PUSH2 0x120C JUMP JUMPDEST PUSH2 0x1224 DUP2 DUP5 DUP5 PUSH2 0x11E7 JUMP JUMPDEST POP POP POP JUMP JUMPDEST JUMPDEST DUP2 DUP2 LT ISZERO PUSH2 0x1248 JUMPI PUSH2 0x123D PUSH1 0x0 DUP3 PUSH2 0x1211 JUMP JUMPDEST PUSH1 0x1 DUP2 ADD SWAP1 POP PUSH2 0x122A JUMP JUMPDEST POP POP JUMP JUMPDEST PUSH1 0x1F DUP3 GT ISZERO PUSH2 0x128D JUMPI PUSH2 0x125E DUP2 PUSH2 0x112D JUMP JUMPDEST PUSH2 0x1267 DUP5 PUSH2 0x1142 JUMP JUMPDEST DUP2 ADD PUSH1 0x20 DUP6 LT ISZERO PUSH2 0x1276 JUMPI DUP2 SWAP1 POP JUMPDEST PUSH2 0x128A PUSH2 0x1282 DUP6 PUSH2 0x1142 JUMP JUMPDEST DUP4 ADD DUP3 PUSH2 0x1229 JUMP JUMPDEST POP POP JUMPDEST POP POP POP JUMP JUMPDEST PUSH1 0x0 DUP3 DUP3 SHR SWAP1 POP SWAP3 SWAP2 POP POP JUMP JUMPDEST PUSH1 0x0 PUSH2 0x12B0 PUSH1 0x0 NOT DUP5 PUSH1 0x8 MUL PUSH2 0x1292 JUMP JUMPDEST NOT DUP1 DUP4 AND SWAP2 POP POP SWAP3 SWAP2 POP POP JUMP JUMPDEST PUSH1 0x0 PUSH2 0x12C9 DUP4 DUP4 PUSH2 0x129F JUMP JUMPDEST SWAP2 POP DUP3 PUSH1 0x2 MUL DUP3 OR SWAP1 POP SWAP3 SWAP2 POP POP JUMP JUMPDEST PUSH2 0x12E2 DUP3 PUSH2 0xA2F JUMP JUMPDEST PUSH8 0xFFFFFFFFFFFFFFFF DUP2 GT ISZERO PUSH2 0x12FB JUMPI PUSH2 0x12FA PUSH2 0x10FE JUMP JUMPDEST JUMPDEST PUSH2 0x1305 DUP3 SLOAD PUSH2 0xF12 JUMP JUMPDEST PUSH2 0x1310 DUP3 DUP3 DUP6 PUSH2 0x124C JUMP JUMPDEST PUSH1 0x0 PUSH1 0x20 SWAP1 POP PUSH1 0x1F DUP4 GT PUSH1 0x1 DUP2 EQ PUSH2 0x1343 JUMPI PUSH1 0x0 DUP5 ISZERO PUSH2 0x1331 JUMPI DUP3 DUP8 ADD MLOAD SWAP1 POP JUMPDEST PUSH2 0x133B DUP6 DUP3 PUSH2 0x12BD JUMP JUMPDEST DUP7 SSTORE POP PUSH2 0x13A3 JUMP JUMPDEST PUSH1 0x1F NOT DUP5 AND PUSH2 0x1351 DUP7 PUSH2 0x112D JUMP JUMPDEST PUSH1 0x0 JUMPDEST DUP3 DUP2 LT ISZERO PUSH2 0x1379 JUMPI DUP5 DUP10 ADD MLOAD DUP3 SSTORE PUSH1 0x1 DUP3 ADD SWAP2 POP PUSH1 0x20 DUP6 ADD SWAP5 POP PUSH1 0x20 DUP2 ADD SWAP1 POP PUSH2 0x1354 JUMP JUMPDEST DUP7 DUP4 LT ISZERO PUSH2 0x1396 JUMPI DUP5 DUP10 ADD MLOAD PUSH2 0x1392 PUSH1 0x1F DUP10 AND DUP3 PUSH2 0x129F JUMP JUMPDEST DUP4 SSTORE POP JUMPDEST PUSH1 0x1 PUSH1 0x2 DUP9 MUL ADD DUP9 SSTORE POP POP POP JUMPDEST POP POP POP POP POP POP JUMP JUMPDEST DUP3 DUP2 DUP4 CALLDATACOPY PUSH1 0x0 DUP4 DUP4 ADD MSTORE POP POP POP JUMP JUMPDEST PUSH1 0x0 PUSH2 0x13C6 DUP4 DUP6 PUSH2 0xBDF JUMP JUMPDEST SWAP4 POP PUSH2 0x13D3 DUP4 DUP6 DUP5 PUSH2 0x13AB JUMP JUMPDEST PUSH2 0x13DC DUP4 PUSH2 0xA75 JUMP JUMPDEST DUP5 ADD SWAP1 POP SWAP4 SWAP3 POP POP POP JUMP JUMPDEST PUSH1 0x0 PUSH1 0x80 DUP3 ADD SWAP1 POP DUP2 DUP2 SUB PUSH1 0x0 DUP4 ADD MSTORE PUSH2 0x1402 DUP2 DUP10 DUP12 PUSH2 0x13BA JUMP JUMPDEST SWAP1 POP DUP2 DUP2 SUB PUSH1 0x20 DUP4 ADD MSTORE PUSH2 0x1417 DUP2 DUP8 DUP10 PUSH2 0x13BA JUMP JUMPDEST SWAP1 POP DUP2 DUP2 SUB PUSH1 0x40 DUP4 ADD MSTORE PUSH2 0x142C DUP2 DUP6 DUP8 PUSH2 0x13BA JUMP JUMPDEST SWAP1 POP PUSH2 0x143B PUSH1 0x60 DUP4 ADD DUP5 PUSH2 0xBB5 JUMP JUMPDEST SWAP9 SWAP8 POP POP POP POP POP POP POP POP JUMP INVALID LOG2 PUSH5 0x6970667358 0x22 SLT KECCAK256 LOG3 BYTE 0xB2 0x23 ORIGIN BLOBHASH PUSH1 0x8C SWAP1 MOD BLOBBASEFEE 0x22 0xE SWAP7 0xF8 SGT 0xF9 0xE3 DUP16 CALLDATASIZE SWAP9 SWAP10 PUSH9 0x597C3846594A311CE3 PUSH5 0x736F6C6343 STOP ADDMOD SHR STOP CALLER "},"methodIdentifiers":{"certificateCount()":"52d7b89c","certificates(uint256)":"663b3e22","getCertIdsByIssuer(address)":"b6fb04ef","getCertificate(uint256)":"51640fee","issueCertificate(string,string,string)":"beec1caa"}}}}}