{"contracts/Certificate.sol":{"Certificate":{"abi":[{"anonymous":false,"inputs":[{"indexed":false,"internalType":"uint256","name":"certId","type":"uint256"},{"indexed":false,"internalType":"string","name":"student","type":"string"},{"indexed":false,"internalType":"string","name":"course","type":"string"},{"indexed":false,"internalType":"string","name":"org","type":"string"},{"indexed":false,"internalType":"string","name":"issuer","type":"string"}],"name":"CertificateIssued","type":"event"},{"inputs":[],"name":"certificateCount","outputs":[{"internalType":"uint256","name":"","type":"uint256"}],"stateMutability":"view","type":"function"},{"inputs":[{"internalType":"uint256","name":"","type":"uint256"}],"name":"certificates","outputs":[{"internalType":"string","name":"student","type":"string"},{"internalType":"string","name":"course","type":"string"},{"internalType":"string","name":"org","type":"string"},{"internalType":"string","name":"issuer","type":"string"},{"internalType":"uint256","name":"issuedAt","type":"uint256"}],"stateMutability":"view","type":"function"},{"inputs":[{"internalType":"string","name":"student","type":"string"},{"internalType":"string","name":"course","type":"string"},{"internalType":"string","name":"org","type":"string"},{"internalType":"string","name":"issuer","type":"string"}],"name":"issueCertificate","outputs":[{"internalType":"uint256","name":"","type":"uint256"}],"stateMutability":"nonpayable","type":"function"}],"evm":{"bytecode":{"linkReferences":{},"object":"6080604052348015600f57600080fd5b50610bd18061001f6000396000f3fe608060405234801561001057600080fd5b50600436106100415760003560e01c806352d7b89c14610046578063663b3e2214610064578063818a299414610098575b600080fd5b61004e6100c8565b60405161005b9190610444565b60405180910390f35b61007e6004803603810190610079919061049f565b6100ce565b60405161008f95949392919061055c565b60405180910390f35b6100b260048036038101906100ad9190610700565b610324565b6040516100bf9190610444565b60405180910390f35b60005481565b60016020528060005260406000206000915090508060000180546100f190610806565b80601f016020809104026020016040519081016040528092919081815260200182805461011d90610806565b801561016a5780601f1061013f5761010080835404028352916020019161016a565b820191906000526020600020905b81548152906001019060200180831161014d57829003601f168201915b50505050509080600101805461017f90610806565b80601f01602080910402602001604051908101604052809291908181526020018280546101ab90610806565b80156101f85780601f106101cd576101008083540402835291602001916101f8565b820191906000526020600020905b8154815290600101906020018083116101db57829003601f168201915b50505050509080600201805461020d90610806565b80601f016020809104026020016040519081016040528092919081815260200182805461023990610806565b80156102865780601f1061025b57610100808354040283529160200191610286565b820191906000526020600020905b81548152906001019060200180831161026957829003601f168201915b50505050509080600301805461029b90610806565b80601f01602080910402602001604051908101604052809291908181526020018280546102c790610806565b80156103145780601f106102e957610100808354040283529160200191610314565b820191906000526020600020905b8154815290600101906020018083116102f757829003601f168201915b5050505050908060040154905085565b600080600081548092919061033890610866565b91905055506040518060a00160405280868152602001858152602001848152602001838152602001428152506001600080548152602001908152602001600020600082015181600001908161038d9190610a5a565b5060208201518160010190816103a39190610a5a565b5060408201518160020190816103b99190610a5a565b5060608201518160030190816103cf9190610a5a565b50608082015181600401559050507f4ab2fce7d5cd6dad399c8d8d6688f9be16fc4522adb8b6eaeea2ec4c5cf4d3fa60005486868686604051610416959493929190610b2c565b60405180910390a16000549050949350505050565b6000819050919050565b61043e8161042b565b82525050565b60006020820190506104596000830184610435565b92915050565b6000604051905090565b600080fd5b600080fd5b61047c8161042b565b811461048757600080fd5b50565b60008135905061049981610473565b92915050565b6000602082840312156104b5576104b4610469565b5b60006104c38482850161048a565b91505092915050565b600081519050919050565b600082825260208201905092915050565b60005b838110156105065780820151818401526020810190506104eb565b60008484015250505050565b6000601f19601f8301169050919050565b600061052e826104cc565b61053881856104d7565b93506105488185602086016104e8565b61055181610512565b840191505092915050565b600060a08201905081810360008301526105768188610523565b9050818103602083015261058a8187610523565b9050818103604083015261059e8186610523565b905081810360608301526105b28185610523565b90506105c16080830184610435565b9695505050505050565b600080fd5b600080fd5b7f4e487b7100000000000000000000000000000000000000000000000000000000600052604160045260246000fd5b61060d82610512565b810181811067ffffffffffffffff8211171561062c5761062b6105d5565b5b80604052505050565b600061063f61045f565b905061064b8282610604565b919050565b600067ffffffffffffffff82111561066b5761066a6105d5565b5b61067482610512565b9050602081019050919050565b82818337600083830152505050565b60006106a361069e84610650565b610635565b9050828152602081018484840111156106bf576106be6105d0565b5b6106ca848285610681565b509392505050565b600082601f8301126106e7576106e66105cb565b5b81356106f7848260208601610690565b91505092915050565b6000806000806080858703121561071a57610719610469565b5b600085013567ffffffffffffffff8111156107385761073761046e565b5b610744878288016106d2565b945050602085013567ffffffffffffffff8111156107655761076461046e565b5b610771878288016106d2565b935050604085013567ffffffffffffffff8111156107925761079161046e565b5b61079e878288016106d2565b925050606085013567ffffffffffffffff8111156107bf576107be61046e565b5b6107cb878288016106d2565b91505092959194509250565b7f4e487b7100000000000000000000000000000000000000000000000000000000600052602260045260246000fd5b6000600282049050600182168061081e57607f821691505b602082108103610831576108306107d7565b5b50919050565b7f4e487b7100000000000000000000000000000000000000000000000000000000600052601160045260246000fd5b60006108718261042b565b91507fffffffffffffffffffffffffffffffffffffffffffffffffffffffffffffffff82036108a3576108a2610837565b5b600182019050919050565b60008190508160005260206000209050919050565b60006020601f8301049050919050565b600082821b905092915050565b6000600883026109107fffffffffffffffffffffffffffffffffffffffffffffffffffffffffffffffff826108d3565b61091a86836108d3565b95508019841693508086168417925050509392505050565b6000819050919050565b600061095761095261094d8461042b565b610932565b61042b565b9050919050565b6000819050919050565b6109718361093c565b61098561097d8261095e565b8484546108e0565b825550505050565b600090565b61099a61098d565b6109a5818484610968565b505050565b5b818110156109c9576109be600082610992565b6001810190506109ab565b5050565b601f821115610a0e576109df816108ae565b6109e8846108c3565b810160208510156109f7578190505b610a0b610a03856108c3565b8301826109aa565b50505b505050565b600082821c905092915050565b6000610a3160001984600802610a13565b1980831691505092915050565b6000610a4a8383610a20565b9150826002028217905092915050565b610a63826104cc565b67ffffffffffffffff811115610a7c57610a7b6105d5565b5b610a868254610806565b610a918282856109cd565b600060209050601f831160018114610ac45760008415610ab2578287015190505b610abc8582610a3e565b865550610b24565b601f198416610ad2866108ae565b60005b82811015610afa57848901518255600182019150602085019450602081019050610ad5565b86831015610b175784890151610b13601f891682610a20565b8355505b6001600288020188555050505b505050505050565b600060a082019050610b416000830188610435565b8181036020830152610b538187610523565b90508181036040830152610b678186610523565b90508181036060830152610b7b8185610523565b90508181036080830152610b8f8184610523565b9050969550505050505056fea26469706673582212207b9ab1ac68eeaf5e46e66b899031fb38c9d3f4c4c1ceecce2cfc8e66d5311d6464736f6c634300081c0033","opcodes":"PUSH1 0x80 PUSH1 0x40 MSTORE CALLVALUE DUP1 ISZERO PUSH1 0xF JUMPI PUSH1 0x0 DUP1 REVERT JUMPDEST POP PUSH2 0xBD1 DUP1 PUSH2 0x1F PUSH1 0x0 CODECOPY PUSH1 0x0 RETURN INVALID PUSH1 0x80 PUSH1 0x40 MSTORE CALLVALUE DUP1 ISZERO PUSH2 0x10 JUMPI PUSH1 0x0 DUP1 REVERT JUMPDEST POP PUSH1 0x4 CALLDATASIZE LT PUSH2 0x41 JUMPI PUSH1 0x0 CALLDATALOAD PUSH1 0xE0 SHR DUP1 PUSH4 0x52D7B89C EQ PUSH2 0x46 JUMPI DUP1 PUSH4 0x663B3E22 EQ PUSH2 0x64 JUMPI DUP1 PUSH4 0x818A2994 EQ PUSH2 0x98 JUMPI JUMPDEST PUSH1 0x0 DUP1 REVERT JUMPDEST PUSH2 0x4E PUSH2 0xC8 JUMP JUMPDEST PUSH1 0x40 MLOAD PUSH2 0x5B SWAP2 SWAP1 PUSH2 0x444 JUMP JUMPDEST PUSH1 0x40 MLOAD DUP1 SWAP2 SUB SWAP1 RETURN JUMPDEST PUSH2 0x7E PUSH1 0x4 DUP1 CALLDATASIZE SUB DUP2 ADD SWAP1 PUSH2 0x79 SWAP2 SWAP1 PUSH2 0x49F JUMP JUMPDEST PUSH2 0xCE JUMP JUMPDEST PUSH1 0x40 MLOAD PUSH2 0x8F SWAP6 SWAP5 SWAP4 SWAP3 SWAP2 SWAP1 PUSH2 0x55C JUMP JUMPDEST PUSH1 0x40 MLOAD DUP1 SWAP2 SUB SWAP1 RETURN JUMPDEST PUSH2 0xB2 PUSH1 0x4 DUP1 CALLDATASIZE SUB DUP2 ADD SWAP1 PUSH2 0xAD SWAP2 SWAP1 PUSH2 0x700 JUMP JUMPDEST PUSH2 0x324 JUMP JUMPDEST PUSH1 0x40 MLOAD PUSH2 0xBF SWAP2 SWAP1 PUSH2 0x444 JUMP JUMPDEST PUSH1 0x40 MLOAD DUP1 SWAP2 SUB SWAP1 RETURN JUMPDEST PUSH1 0x0 SLOAD DUP2 JUMP JUMPDEST PUSH1 0x1 PUSH1 0x20 MSTORE DUP1 PUSH1 0x0 MSTORE PUSH1 0x40 PUSH1 0x0 KECCAK256 PUSH1 0x0 SWAP2 POP SWAP1 POP DUP1 PUSH1 0x0 ADD DUP1 SLOAD PUSH2 0xF1 SWAP1 PUSH2 0x806 JUMP JUMPDEST DUP1 PUSH1 0x1F ADD PUSH1 0x20 DUP1 SWAP2 DIV MUL PUSH1 0x20 ADD PUSH1 0x40 MLOAD SWAP1 DUP2 ADD PUSH1 0x40 MSTORE DUP1 SWAP3 SWAP2 SWAP1 DUP2 DUP2 MSTORE PUSH1 0x20 ADD DUP3 DUP1 SLOAD PUSH2 0x11D SWAP1 PUSH2 0x806 JUMP JUMPDEST DUP1 ISZERO PUSH2 0x16A JUMPI DUP1 PUSH1 0x1F LT PUSH2 0x13F JUMPI PUSH2 0x100 DUP1 DUP4 SLOAD DIV MUL DUP4 MSTORE SWAP2 PUSH1 0x20 ADD SWAP2 PUSH2 0x16A JUMP JUMPDEST DUP3 ADD SWAP2 SWAP1 PUSH1 0x0 MSTORE PUSH1 0x20 PUSH1 0x0 KECCAK256 SWAP1 JUMPDEST DUP2 SLOAD DUP2 MSTORE SWAP1 PUSH1 0x1 ADD SWAP1 PUSH1 0x20 ADD DUP1 DUP4 GT PUSH2 0x14D JUMPI DUP3 SWAP1 SUB PUSH1 0x1F AND DUP3 ADD SWAP2 JUMPDEST POP POP POP POP POP SWAP1 DUP1 PUSH1 0x1 ADD DUP1 SLOAD PUSH2 0x17F SWAP1 PUSH2 0x806 JUMP JUMPDEST DUP1 PUSH1 0x1F ADD PUSH1 0x20 DUP1 SWAP2 DIV MUL PUSH1 0x20 ADD PUSH1 0x40 MLOAD SWAP1 DUP2 ADD PUSH1 0x40 MSTORE DUP1 SWAP3 SWAP2 SWAP1 DUP2 DUP2 MSTORE PUSH1 0x20 ADD DUP3 DUP1 SLOAD PUSH2 0x1AB SWAP1 PUSH2 0x806 JUMP JUMPDEST DUP1 ISZERO PUSH2 0x1F8 JUMPI DUP1 PUSH1 0x1F LT PUSH2 0x1CD JUMPI PUSH2 0x100 DUP1 DUP4 SLOAD DIV MUL DUP4 MSTORE SWAP2 PUSH1 0x20 ADD SWAP2 PUSH2 0x1F8 JUMP JUMPDEST DUP3 ADD SWAP2 SWAP1 PUSH1 0x0 MSTORE PUSH1 0x20 PUSH1 0x0 KECCAK256 SWAP1 JUMPDEST DUP2 SLOAD DUP2 MSTORE SWAP1 PUSH1 0x1 ADD SWAP1 PUSH1 0x20 ADD DUP1 DUP4 GT PUSH2 0x1DB JUMPI DUP3 SWAP1 SUB PUSH1 0x1F AND DUP3 ADD SWAP2 JUMPDEST POP POP POP POP POP SWAP1 DUP1 PUSH1 0x2 ADD DUP1 SLOAD PUSH2 0x20D SWAP1 PUSH2 0x806 JUMP JUMPDEST DUP1 PUSH1 0x1F ADD PUSH1 0x20 DUP1 SWAP2 DIV MUL PUSH1 0x20 ADD PUSH1 0x40 MLOAD SWAP1 DUP2 ADD PUSH1 0x40 MSTORE DUP1 SWAP3 SWAP2 SWAP1 DUP2 DUP2 MSTORE PUSH1 0x20 ADD DUP3 DUP1 SLOAD PUSH2 0x239 SWAP1 PUSH2 0x806 JUMP JUMPDEST DUP1 ISZERO PUSH2 0x286 JUMPI DUP1 PUSH1 0x1F LT PUSH2 0x25B JUMPI PUSH2 0x100 DUP1 DUP4 SLOAD DIV MUL DUP4 MSTORE SWAP2 PUSH1 0x20 ADD SWAP2 PUSH2 0x286 JUMP JUMPDEST DUP3 ADD SWAP2 SWAP1 PUSH1 0x0 MSTORE PUSH1 0x20 PUSH1 0x0 KECCAK256 SWAP1 JUMPDEST DUP2 SLOAD DUP2 MSTORE SWAP1 PUSH1 0x1 ADD SWAP1 PUSH1 0x20 ADD DUP1 DUP4 GT PUSH2 0x269 JUMPI DUP3 SWAP1 SUB PUSH1 0x1F AND DUP3 ADD SWAP2 JUMPDEST POP POP POP POP POP SWAP1 DUP1 PUSH1 0x3 ADD DUP1 SLOAD PUSH2 0x29B SWAP1 PUSH2 0x806 JUMP JUMPDEST DUP1 PUSH1 0x1F ADD PUSH1 0x20 DUP1 SWAP2 DIV MUL PUSH1 0x20 ADD PUSH1 0x40 MLOAD SWAP1 DUP2 ADD PUSH1 0x40 MSTORE DUP1 SWAP3 SWAP2 SWAP1 DUP2 DUP2 MSTORE PUSH1 0x20 ADD DUP3 DUP1 SLOAD PUSH2 0x2C7 SWAP1 PUSH2 0x806 JUMP JUMPDEST DUP1 ISZERO PUSH2 0x314 JUMPI DUP1 PUSH1 0x1F LT PUSH2 0x2E9 JUMPI PUSH2 0x100 DUP1 DUP4 SLOAD DIV MUL DUP4 MSTORE SWAP2 PUSH1 0x20 ADD SWAP2 PUSH2 0x314 JUMP JUMPDEST DUP3 ADD SWAP2 SWAP1 PUSH1 0x0 MSTORE PUSH1 0x20 PUSH1 0x0 KECCAK256 SWAP1 JUMPDEST DUP2 SLOAD DUP2 MSTORE SWAP1 PUSH1 0x1 ADD SWAP1 PUSH1 0x20 ADD DUP1 DUP4 GT PUSH2 0x2F7 JUMPI DUP3 SWAP1 SUB PUSH1 0x1F AND DUP3 ADD SWAP2 JUMPDEST POP POP POP POP POP SWAP1 DUP1 PUSH1 0x4 ADD SLOAD SWAP1 POP DUP6 JUMP JUMPDEST PUSH1 0x0 DUP1 PUSH1 0x0 DUP2 SLOAD DUP1 SWAP3 SWAP2 SWAP1 PUSH2 0x338 SWAP1 PUSH2 0x866 JUMP JUMPDEST SWAP2 SWAP1 POP SSTORE POP PUSH1 0x40 MLOAD DUP1 PUSH1 0xA0 ADD PUSH1 0x40 MSTORE DUP1 DUP7 DUP2 MSTORE PUSH1 0x20 ADD DUP6 DUP2 MSTORE PUSH1 0x20 ADD DUP5 DUP2 MSTORE PUSH1 0x20 ADD DUP4 DUP2 MSTORE PUSH1 0x20 ADD TIMESTAMP DUP2 MSTORE POP PUSH1 0x1 PUSH1 0x0 DUP1 SLOAD DUP2 MSTORE PUSH1 0x20 ADD SWAP1 DUP2 MSTORE PUSH1 0x20 ADD PUSH1 0x0 KECCAK256 PUSH1 0x0 DUP3 ADD MLOAD DUP2 PUSH1 0x0 ADD SWAP1 DUP2 PUSH2 0x38D SWAP2 SWAP1 PUSH2 0xA5A JUMP JUMPDEST POP PUSH1 0x20 DUP3 ADD MLOAD DUP2 PUSH1 0x1 ADD SWAP1 DUP2 PUSH2 0x3A3 SWAP2 SWAP1 PUSH2 0xA5A JUMP JUMPDEST POP PUSH1 0x40 DUP3 ADD MLOAD DUP2 PUSH1 0x2 ADD SWAP1 DUP2 PUSH2 0x3B9 SWAP2 SWAP1 PUSH2 0xA5A JUMP JUMPDEST POP PUSH1 0x60 DUP3 ADD MLOAD DUP2 PUSH1 0x3 ADD SWAP1 DUP2 PUSH2 0x3CF SWAP2 SWAP1 PUSH2 0xA5A JUMP JUMPDEST POP PUSH1 0x80 DUP3 ADD MLOAD DUP2 PUSH1 0x4 ADD SSTORE SWAP1 POP POP PUSH32 0x4AB2FCE7D5CD6DAD399C8D8D6688F9BE16FC4522ADB8B6EAEEA2EC4C5CF4D3FA PUSH1 0x0 SLOAD DUP7 DUP7 DUP7 DUP7 PUSH1 0x40 MLOAD PUSH2 0x416 SWAP6 SWAP5 SWAP4 SWAP3 SWAP2 SWAP1 PUSH2 0xB2C JUMP JUMPDEST PUSH1 0x40 MLOAD DUP1 SWAP2 SUB SWAP1 LOG1 PUSH1 0x0 SLOAD SWAP1 POP SWAP5 SWAP4 POP POP POP POP JUMP JUMPDEST PUSH1 0x0 DUP2 SWAP1 POP SWAP2 SWAP1 POP JUMP JUMPDEST PUSH2 0x43E DUP2 PUSH2 0x42B JUMP JUMPDEST DUP3 MSTORE POP POP JUMP JUMPDEST PUSH1 0x0 PUSH1 0x20 DUP3 ADD SWAP1 POP PUSH2 0x459 PUSH1 0x0 DUP4 ADD DUP5 PUSH2 0x435 JUMP JUMPDEST SWAP3 SWAP2 POP POP JUMP JUMPDEST PUSH1 0x0 PUSH1 0x40 MLOAD SWAP1 POP SWAP1 JUMP JUMPDEST PUSH1 0x0 DUP1 REVERT JUMPDEST PUSH1 0x0 DUP1 REVERT JUMPDEST PUSH2 0x47C DUP2 PUSH2 0x42B JUMP JUMPDEST DUP2 EQ PUSH2 0x487 JUMPI PUSH1 0x0 DUP1 REVERT JUMPDEST POP JUMP JUMPDEST PUSH1 0x0 DUP2 CALLDATALOAD SWAP1 POP PUSH2 0x499 DUP2 PUSH2 0x473 JUMP JUMPDEST SWAP3 SWAP2 POP POP JUMP JUMPDEST PUSH1 0x0 PUSH1 0x20 DUP3 DUP5 SUB SLT ISZERO PUSH2 0x4B5 JUMPI PUSH2 0x4B4 PUSH2 0x469 JUMP JUMPDEST JUMPDEST PUSH1 0x0 PUSH2 0x4C3 DUP5 DUP3 DUP6 ADD PUSH2 0x48A JUMP JUMPDEST SWAP2 POP POP SWAP3 SWAP2 POP POP JUMP JUMPDEST PUSH1 0x0 DUP2 MLOAD SWAP1 POP SWAP2 SWAP1 POP JUMP JUMPDEST PUSH1 0x0 DUP3 DUP3 MSTORE PUSH1 0x20 DUP3 ADD SWAP1 POP SWAP3 SWAP2 POP POP JUMP JUMPDEST PUSH1 0x0 JUMPDEST DUP4 DUP2 LT ISZERO PUSH2 0x506 JUMPI DUP1 DUP3 ADD MLOAD DUP2 DUP5 ADD MSTORE PUSH1 0x20 DUP2 ADD SWAP1 POP PUSH2 0x4EB JUMP JUMPDEST PUSH1 0x0 DUP5 DUP5 ADD MSTORE POP POP POP POP JUMP JUMPDEST PUSH1 0x0 PUSH1 0x1F NOT PUSH1 0x1F DUP4 ADD AND SWAP1 POP SWAP2 SWAP1 POP JUMP JUMPDEST PUSH1 0x0 PUSH2 0x52E DUP3 PUSH2 0x4CC JUMP JUMPDEST PUSH2 0x538 DUP2 DUP6 PUSH2 0x4D7 JUMP JUMPDEST SWAP4 POP PUSH2 0x548 DUP2 DUP6 PUSH1 0x20 DUP7 ADD PUSH2 0x4E8 JUMP JUMPDEST PUSH2 0x551 DUP2 PUSH2 0x512 JUMP JUMPDEST DUP5 ADD SWAP2 POP POP SWAP3 SWAP2 POP POP JUMP JUMPDEST PUSH1 0x0 PUSH1 0xA0 DUP3 ADD SWAP1 POP DUP2 DUP2 SUB PUSH1 0x0 DUP4 ADD MSTORE PUSH2 0x576 DUP2 DUP9 PUSH2 0x523 JUMP JUMPDEST SWAP1 POP DUP2 DUP2 SUB PUSH1 0x20 DUP4 ADD MSTORE PUSH2 0x58A DUP2 DUP8 PUSH2 0x523 JUMP JUMPDEST SWAP1 POP DUP2 DUP2 SUB PUSH1 0x40 DUP4 ADD MSTORE PUSH2 0x59E DUP2 DUP7 PUSH2 0x523 JUMP JUMPDEST SWAP1 POP DUP2 DUP2 SUB PUSH1 0x60 DUP4 ADD MSTORE PUSH2 0x5B2 DUP2 DUP6 PUSH2 0x523 JUMP JUMPDEST SWAP1 POP PUSH2 0x5C1 PUSH1 0x80 DUP4 ADD DUP5 PUSH2 0x435 JUMP JUMPDEST SWAP7 SWAP6 POP POP POP POP POP POP JUMP JUMPDEST PUSH1 0x0 DUP1 REVERT JUMPDEST PUSH1 0x0 DUP1 REVERT JUMPDEST PUSH32 0x4E487B7100000000000000000000000000000000000000000000000000000000 PUSH1 0x0 MSTORE PUSH1 0x41 PUSH1 0x4 MSTORE PUSH1 0x24 PUSH1 0x0 REVERT JUMPDEST PUSH2 0x60D DUP3 PUSH2 0x512 JUMP JUMPDEST DUP2 ADD DUP2 DUP2 LT PUSH8 0xFFFFFFFFFFFFFFFF DUP3 GT OR ISZERO PUSH2 0x62C JUMPI PUSH2 0x62B PUSH2 0x5D5 JUMP JUMPDEST JUMPDEST DUP1 PUSH1 0x40 MSTORE POP POP POP JUMP JUMPDEST PUSH1 0x0 PUSH2 0x63F PUSH2 0x45F JUMP JUMPDEST SWAP1 POP PUSH2 0x64B DUP3 DUP3 PUSH2 0x604 JUMP JUMPDEST SWAP2 SWAP1 POP JUMP JUMPDEST PUSH1 0x0 PUSH8 0xFFFFFFFFFFFFFFFF DUP3 GT ISZERO PUSH2 0x66B JUMPI PUSH2 0x66A PUSH2 0x5D5 JUMP JUMPDEST JUMPDEST PUSH2 0x674 DUP3 PUSH2 0x512 JUMP JUMPDEST SWAP1 POP PUSH1 0x20 DUP2 ADD SWAP1 POP SWAP2 SWAP1 POP JUMP JUMPDEST DUP3 DUP2 DUP4 CALLDATACOPY PUSH1 0x0 DUP4 DUP4 ADD MSTORE POP POP POP JUMP JUMPDEST PUSH1 0x0 PUSH2 0x6A3 PUSH2 0x69E DUP5 PUSH2 0x650 JUMP JUMPDEST PUSH2 0x635 JUMP JUMPDEST SWAP1 POP DUP3 DUP2 MSTORE PUSH1 0x20 DUP2 ADD DUP5 DUP5 DUP5 ADD GT ISZERO PUSH2 0x6BF JUMPI PUSH2 0x6BE PUSH2 0x5D0 JUMP JUMPDEST JUMPDEST PUSH2 0x6CA DUP5 DUP3 DUP6 PUSH2 0x681 JUMP JUMPDEST POP SWAP4 SWAP3 POP POP POP JUMP JUMPDEST PUSH1 0x0 DUP3 PUSH1 0x1F DUP4 ADD SLT PUSH2 0x6E7 JUMPI PUSH2 0x6E6 PUSH2 0x5CB JUMP JUMPDEST JUMPDEST DUP2 CALLDATALOAD PUSH2 0x6F7 DUP5 DUP3 PUSH1 0x20 DUP7 ADD PUSH2 0x690 JUMP JUMPDEST SWAP2 POP POP SWAP3 SWAP2 POP POP JUMP JUMPDEST PUSH1 0x0 DUP1 PUSH1 0x0 DUP1 PUSH1 0x80 DUP6 DUP8 SUB SLT ISZERO PUSH2 0x71A JUMPI PUSH2 0x719 PUSH2 0x469 JUMP JUMPDEST JUMPDEST PUSH1 0x0 DUP6 ADD CALLDATALOAD PUSH8 0xFFFFFFFFFFFFFFFF DUP2 GT ISZERO PUSH2 0x738 JUMPI PUSH2 0x737 PUSH2 0x46E JUMP JUMPDEST JUMPDEST PUSH2 0x744 DUP8 DUP3 DUP9 ADD PUSH2 0x6D2 JUMP JUMPDEST SWAP5 POP POP PUSH1 0x20 DUP6 ADD CALLDATALOAD PUSH8 0xFFFFFFFFFFFFFFFF DUP2 GT ISZERO PUSH2 0x765 JUMPI PUSH2 0x764 PUSH2 0x46E JUMP JUMPDEST JUMPDEST PUSH2 0x771 DUP8 DUP3 DUP9 ADD PUSH2 0x6D2 JUMP JUMPDEST SWAP4 POP POP PUSH1 0x40 DUP6 ADD CALLDATALOAD PUSH8 0xFFFFFFFFFFFFFFFF DUP2 GT ISZERO PUSH2 0x792 JUMPI PUSH2 0x791 PUSH2 0x46E JUMP JUMPDEST JUMPDEST PUSH2 0x79E DUP8 DUP3 DUP9 ADD PUSH2 0x6D2 JUMP JUMPDEST SWAP3 POP POP PUSH1 0x60 DUP6 ADD CALLDATALOAD PUSH8 0xFFFFFFFFFFFFFFFF DUP2 GT ISZERO PUSH2 0x7BF JUMPI PUSH2 0x7BE PUSH2 0x46E JUMP JUMPDEST JUMPDEST PUSH2 0x7CB DUP8 DUP3 DUP9 ADD PUSH2 0x6D2 JUMP JUMPDEST SWAP2 POP POP SWAP3 SWAP6 SWAP2 SWAP5 POP SWAP3 POP JUMP JUMPDEST PUSH32 0x4E487B7100000000000000000000000000000000000000000000000000000000 PUSH1 0x0 MSTORE PUSH1 0x22 PUSH1 0x4 MSTORE PUSH1 0x24 PUSH1 0x0 REVERT JUMPDEST PUSH1 0x0 PUSH1 0x2 DUP3 DIV SWAP1 POP PUSH1 0x1 DUP3 AND DUP1 PUSH2 0x81E JUMPI PUSH1 0x7F DUP3 AND SWAP2 POP JUMPDEST PUSH1 0x20 DUP3 LT DUP2 SUB PUSH2 0x831 JUMPI PUSH2 0x830 PUSH2 0x7D7 JUMP JUMPDEST JUMPDEST POP SWAP2 SWAP1 POP JUMP JUMPDEST PUSH32 0x4E487B7100000000000000000000000000000000000000000000000000000000 PUSH1 0x0 MSTORE PUSH1 0x11 PUSH1 0x4 MSTORE PUSH1 0x24 PUSH1 0x0 REVERT JUMPDEST PUSH1 0x0 PUSH2 0x871 DUP3 PUSH2 0x42B JUMP JUMPDEST SWAP2 POP PUSH32 0xFFFFFFFFFFFFFFFFFFFFFFFFFFFFFFFFFFFFFFFFFFFFFFFFFFFFFFFFFFFFFFFF DUP3 SUB PUSH2 0x8A3 JUMPI PUSH2 0x8A2 PUSH2 0x837 JUMP JUMPDEST JUMPDEST PUSH1 0x1 DUP3 ADD SWAP1 POP SWAP2 SWAP1 POP JUMP JUMPDEST PUSH1 0x0 DUP2 SWAP1 POP DUP2 PUSH1 0x0 MSTORE PUSH1 0x20 PUSH1 0x0 KECCAK256 SWAP1 POP SWAP2 SWAP1 POP JUMP JUMPDEST PUSH1 0x0 PUSH1 0x20 PUSH1 0x1F DUP4 ADD DIV SWAP1 POP SWAP2 SWAP1 POP JUMP JUMPDEST PUSH1 0x0 DUP3 DUP3 SHL SWAP1 POP SWAP3 SWAP2 POP POP JUMP JUMPDEST PUSH1 0x0 PUSH1 0x8 DUP4 MUL PUSH2 0x910 PUSH32 0xFFFFFFFFFFFFFFFFFFFFFFFFFFFFFFFFFFFFFFFFFFFFFFFFFFFFFFFFFFFFFFFF DUP3 PUSH2 0x8D3 JUMP JUMPDEST PUSH2 0x91A DUP7 DUP4 PUSH2 0x8D3 JUMP JUMPDEST SWAP6 POP DUP1 NOT DUP5 AND SWAP4 POP DUP1 DUP7 AND DUP5 OR SWAP3 POP POP POP SWAP4 SWAP3 POP POP POP JUMP JUMPDEST PUSH1 0x0 DUP2 SWAP1 POP SWAP2 SWAP1 POP JUMP JUMPDEST PUSH1 0x0 PUSH2 0x957 PUSH2 0x952 PUSH2 0x94D DUP5 PUSH2 0x42B JUMP JUMPDEST PUSH2 0x932 JUMP JUMPDEST PUSH2 0x42B JUMP JUMPDEST SWAP1 POP SWAP2 SWAP1 POP JUMP JUMPDEST PUSH1 0x0 DUP2 SWAP1 POP SWAP2 SWAP1 POP JUMP JUMPDEST PUSH2 0x971 DUP4 PUSH2 0x93C JUMP JUMPDEST PUSH2 0x985 PUSH2 0x97D DUP3 PUSH2 0x95E JUMP JUMPDEST DUP5 DUP5 SLOAD PUSH2 0x8E0 JUMP JUMPDEST DUP3 SSTORE POP POP POP POP JUMP JUMPDEST PUSH1 0x0 SWAP1 JUMP JUMPDEST PUSH2 0x99A PUSH2 0x98D JUMP JUMPDEST PUSH2 0x9A5 DUP2 DUP5 DUP5 PUSH2 0x968 JUMP JUMPDEST POP POP POP JUMP JUMPDEST JUMPDEST DUP2 DUP2 LT ISZERO PUSH2 0x9C9 JUMPI PUSH2 0x9BE PUSH1 0x0 DUP3 PUSH2 0x992 JUMP JUMPDEST PUSH1 0x1 DUP2 ADD SWAP1 POP PUSH2 0x9AB JUMP JUMPDEST POP POP JUMP JUMPDEST PUSH1 0x1F DUP3 GT ISZERO PUSH2 0xA0E JUMPI PUSH2 0x9DF DUP2 PUSH2 0x8AE JUMP JUMPDEST PUSH2 0x9E8 DUP5 PUSH2 0x8C3 JUMP JUMPDEST DUP2 ADD PUSH1 0x20 DUP6 LT ISZERO PUSH2 0x9F7 JUMPI DUP2 SWAP1 POP JUMPDEST PUSH2 0xA0B PUSH2 0xA03 DUP6 PUSH2 0x8C3 JUMP JUMPDEST DUP4 ADD DUP3 PUSH2 0x9AA JUMP JUMPDEST POP POP JUMPDEST POP POP POP JUMP JUMPDEST PUSH1 0x0 DUP3 DUP3 SHR SWAP1 POP SWAP3 SWAP2 POP POP JUMP JUMPDEST PUSH1 0x0 PUSH2 0xA31 PUSH1 0x0 NOT DUP5 PUSH1 0x8 MUL PUSH2 0xA13 JUMP JUMPDEST NOT DUP1 DUP4 AND SWAP2 POP POP SWAP3 SWAP2 POP POP JUMP JUMPDEST PUSH1 0x0 PUSH2 0xA4A DUP4 DUP4 PUSH2 0xA20 JUMP JUMPDEST SWAP2 POP DUP3 PUSH1 0x2 MUL DUP3 OR SWAP1 POP SWAP3 SWAP2 POP POP JUMP JUMPDEST PUSH2 0xA63 DUP3 PUSH2 0x4CC JUMP JUMPDEST PUSH8 0xFFFFFFFFFFFFFFFF DUP2 GT ISZERO PUSH2 0xA7C JUMPI PUSH2 0xA7B PUSH2 0x5D5 JUMP JUMPDEST JUMPDEST PUSH2 0xA86 DUP3 SLOAD PUSH2 0x806 JUMP JUMPDEST PUSH2 0xA91 DUP3 DUP3 DUP6 PUSH2 0x9CD JUMP JUMPDEST PUSH1 0x0 PUSH1 0x20 SWAP1 POP PUSH1 0x1F DUP4 GT PUSH1 0x1 DUP2 EQ PUSH2 0xAC4 JUMPI PUSH1 0x0 DUP5 ISZERO PUSH2 0xAB2 JUMPI DUP3 DUP8 ADD MLOAD SWAP1 POP JUMPDEST PUSH2 0xABC DUP6 DUP3 PUSH2 0xA3E JUMP JUMPDEST DUP7 SSTORE POP PUSH2 0xB24 JUMP JUMPDEST PUSH1 0x1F NOT DUP5 AND PUSH2 0xAD2 DUP7 PUSH2 0x8AE JUMP JUMPDEST PUSH1 0x0 JUMPDEST DUP3 DUP2 LT ISZERO PUSH2 0xAFA JUMPI DUP5 DUP10 ADD MLOAD DUP3 SSTORE PUSH1 0x1 DUP3 ADD SWAP2 POP PUSH1 0x20 DUP6 ADD SWAP5 POP PUSH1 0x20 DUP2 ADD SWAP1 POP PUSH2 0xAD5 JUMP JUMPDEST DUP7 DUP4 LT ISZERO PUSH2 0xB17 JUMPI DUP5 DUP10 ADD MLOAD PUSH2 0xB13 PUSH1 0x1F DUP10 AND DUP3 PUSH2 0xA20 JUMP JUMPDEST DUP4 SSTORE POP JUMPDEST PUSH1 0x1 PUSH1 0x2 DUP9 MUL ADD DUP9 SSTORE POP POP POP JUMPDEST POP POP POP POP POP POP JUMP JUMPDEST PUSH1 0x0 PUSH1 0xA0 DUP3 ADD SWAP1 POP PUSH2 0xB41 PUSH1 0x0 DUP4 ADD DUP9 PUSH2 0x435 JUMP JUMPDEST DUP2 DUP2 SUB PUSH1 0x20 DUP4 ADD MSTORE PUSH2 0xB53 DUP2 DUP8 PUSH2 0x523 JUMP JUMPDEST SWAP1 POP DUP2 DUP2 SUB PUSH1 0x40 DUP4 ADD MSTORE PUSH2 0xB67 DUP2 DUP7 PUSH2 0x523 JUMP JUMPDEST SWAP1 POP DUP2 DUP2 SUB PUSH1 0x60 DUP4 ADD MSTORE PUSH2 0xB7B DUP2 DUP6 PUSH2 0x523 JUMP JUMPDEST SWAP1 POP DUP2 DUP2 SUB PUSH1 0x80 DUP4 ADD MSTORE PUSH2 0xB8F DUP2 DUP5 PUSH2 0x523 JUMP JUMPDEST SWAP1 POP SWAP7 SWAP6 POP POP POP POP POP POP JUMP INVALID LOG2 PUSH5 0x6970667358 0x22 SLT KECCAK256 PUSH28 0x9AB1AC68EEAF5E46E66B899031FB38C9D3F4C4C1CEECCE2CFC8E66D5 BALANCE SAR PUSH5 0x64736F6C63 NUMBER STOP ADDMOD SHR STOP CALLER "},"methodIdentifiers":{"certificateCount()":"52d7b89c","certificates(uint256)":"663b3e22","issueCertificate(string,string,string,string)":"818a2994"}}}}}