{
  "_format": "hh-sol-artifact-1",
  "contractName": "Certificate",
  "sourceName": "contracts/Certificate.sol",
  "abi": [
    {
      "anonymous": false,
      "inputs": [
        {
          "indexed": true,
          "internalType": "uint256",
          "name": "certId",
          "type": "uint256"
        },
        {
          "indexed": false,
          "internalType": "string",
          "name": "student",
          "type": "string"
        },
        {
          "indexed": false,
          "internalType": "string",
          "name": "course",
          "type": "string"
        },
        {
          "indexed": false,
          "internalType": "string",
          "name": "org",
          "type": "string"
        },
        {
          "indexed": true,
          "internalType": "address",
          "name": "issuer",
          "type": "address"
        },
        {
          "indexed": false,
          "internalType": "uint256",
          "name": "issuedAt",
          "type": "uint256"
        }
      ],
      "name": "CertificateIssued",
      "type": "event"
    },
    {
      "inputs": [],
      "name": "certificateCount",
      "outputs": [
        {
          "internalType": "uint256",
          "name": "",
          "type": "uint256"
        }
      ],
      "stateMutability": "view",
      "type": "function"
    },
    {
      "inputs": [
        {
          "internalType": "uint256",
          "name": "",
          "type": "uint256"
        }
      ],
      "name": "certificates",
      "outputs": [
        {
          "internalType": "string",
          "name": "student",
          "type": "string"
        },
        {
          "internalType": "string",
          "name": "course",
          "type": "string"
        },
        {
          "internalType": "string",
          "name": "org",
          "type": "string"
        },
        {
          "internalType": "address",
          "name": "issuer",
          "type": "address"
        },
        {
          "internalType": "uint256",
          "name": "issuedAt",
          "type": "uint256"
        }
      ],
      "stateMutability": "view",
      "type": "function"
    },
    {
      "inputs": [
        {
          "internalType": "address",
          "name": "issuer",
          "type": "address"
        }
      ],
      "name": "getCertIdsByIssuer",
      "outputs": [
        {
          "internalType": "uint256[]",
          "name": "",
          "type": "uint256[]"
        }
      ],
      "stateMutability": "view",
      "type": "function"
    },
    {
      "inputs": [
        {
          "internalType": "uint256",
          "name": "certId",
          "type": "uint256"
        }
      ],
      "name": "getCertificate",
      "outputs": [
        {
          "components": [
            {
              "internalType": "string",
              "name": "student",
              "type": "string"
            },
            {
              "internalType": "string",
              "name": "course",
              "type": "string"
            },
            {
              "internalType": "string",
              "name": "org",
              "type": "string"
            },
            {
              "internalType": "address",
              "name": "issuer",
              "type": "address"
            },
            {
              "internalType": "uint256",
              "name": "issuedAt",
              "type": "uint256"
            }
          ],
          "internalType": "struct Certificate.Cert",
          "name": "",
          "type": "tuple"
        }
      ],
      "stateMutability": "view",
      "type": "function"
    },
    {
      "inputs": [
        {
          "internalType": "string",
          "name": "student",
          "type": "string"
        },
        {
          "internalType": "string",
          "name": "course",
          "type": "string"
        },
        {
          "internalType": "string",
          "name": "org",
          "type": "string"
        }
      ],
      "name": "issueCertificate",
      "outputs": [
        {
          "internalType": "uint256",
          "name": "",
          "type": "uint256"
        }
      ],
      "stateMutability": "nonpayable",
      "type": "function"
    }
  ],
  "bytecode": "0x6080604052348015600f57600080fd5b5061147d8061001f6000396000f3fe608060405234801561001057600080fd5b50600436106100575760003560e01c806351640fee1461005c57806352d7b89c1461008c578063663b3e22146100aa578063b6fb04ef146100de578063beec1caa1461010e575b600080fd5b61007660048036038101906100719190610a02565b61013e565b6040516100839190610b93565b60405180910390f35b610094610381565b6040516100a19190610bc4565b60405180910390f35b6100c460048036038101906100bf9190610a02565b610387565b6040516100d5959493929190610c38565b60405180910390f35b6100f860048036038101906100f39190610ccc565b610575565b6040516101059190610da8565b60405180910390f35b61012860048036038101906101239190610e2f565b61060c565b6040516101359190610bc4565b60405180910390f35b61014661097d565b600160008381526020019081526020016000206040518060a001604052908160008201805461017490610f12565b80601f01602080910402602001604051908101604052809291908181526020018280546101a090610f12565b80156101ed5780601f106101c2576101008083540402835291602001916101ed565b820191906000526020600020905b8154815290600101906020018083116101d057829003601f168201915b5050505050815260200160018201805461020690610f12565b80601f016020809104026020016040519081016040528092919081815260200182805461023290610f12565b801561027f5780601f106102545761010080835404028352916020019161027f565b820191906000526020600020905b81548152906001019060200180831161026257829003601f168201915b5050505050815260200160028201805461029890610f12565b80601f01602080910402602001604051908101604052809291908181526020018280546102c490610f12565b80156103115780601f106102e657610100808354040283529160200191610311565b820191906000526020600020905b8154815290600101906020018083116102f457829003601f168201915b505050505081526020016003820160009054906101000a900473ffffffffffffffffffffffffffffffffffffffff1673ffffffffffffffffffffffffffffffffffffffff1673ffffffffffffffffffffffffffffffffffffffff1681526020016004820154815250509050919050565b60005481565b60016020528060005260406000206000915090508060000180546103aa90610f12565b80601f01602080910402602001604051908101604052809291908181526020018280546103d690610f12565b80156104235780601f106103f857610100808354040283529160200191610423565b820191906000526020600020905b81548152906001019060200180831161040657829003601f168201915b50505050509080600101805461043890610f12565b80601f016020809104026020016040519081016040528092919081815260200182805461046490610f12565b80156104b15780601f10610486576101008083540402835291602001916104b1565b820191906000526020600020905b81548152906001019060200180831161049457829003601f168201915b5050505050908060020180546104c690610f12565b80601f01602080910402602001604051908101604052809291908181526020018280546104f290610f12565b801561053f5780601f106105145761010080835404028352916020019161053f565b820191906000526020600020905b81548152906001019060200180831161052257829003601f168201915b5050505050908060030160009054906101000a900473ffffffffffffffffffffffffffffffffffffffff16908060040154905085565b6060600260008373ffffffffffffffffffffffffffffffffffffffff1673ffffffffffffffffffffffffffffffffffffffff16815260200190815260200160002080548060200260200160405190810160405280929190818152602001828054801561060057602002820191906000526020600020905b8154815260200190600101908083116105ec575b50505050509050919050565b6000808787905011610653576040517f08c379a000000000000000000000000000000000000000000000000000000000815260040161064a90610f8f565b60405180910390fd5b60008585905011610699576040517f08c379a000000000000000000000000000000000000000000000000000000000815260040161069090610ffb565b60405180910390fd5b600083839050116106df576040517f08c379a00000000000000000000000000000000000000000000000000000000081526004016106d690611067565b60405180910390fd5b6000808154809291906106f1906110b6565b91905055506040518060a0016040528088888080601f016020809104026020016040519081016040528093929190818152602001838380828437600081840152601f19601f82011690508083019250505050505050815260200186868080601f016020809104026020016040519081016040528093929190818152602001838380828437600081840152601f19601f82011690508083019250505050505050815260200184848080601f016020809104026020016040519081016040528093929190818152602001838380828437600081840152601f19601f8201169050808301925050505050505081526020013373ffffffffffffffffffffffffffffffffffffffff168152602001428152506001600080548152602001908152602001600020600082015181600001908161082891906112d9565b50602082015181600101908161083e91906112d9565b50604082015181600201908161085491906112d9565b5060608201518160030160006101000a81548173ffffffffffffffffffffffffffffffffffffffff021916908373ffffffffffffffffffffffffffffffffffffffff16021790555060808201518160040155905050600260003373ffffffffffffffffffffffffffffffffffffffff1673ffffffffffffffffffffffffffffffffffffffff16815260200190815260200160002060005490806001815401808255809150506001900390600052602060002001600090919091909150553373ffffffffffffffffffffffffffffffffffffffff166000547f68b901c431a211531ba3d723417a83156b41b40e438dffd6964720fe01b336ab8989898989894260405161096697969594939291906113e7565b60405180910390a360005490509695505050505050565b6040518060a00160405280606081526020016060815260200160608152602001600073ffffffffffffffffffffffffffffffffffffffff168152602001600081525090565b600080fd5b600080fd5b6000819050919050565b6109df816109cc565b81146109ea57600080fd5b50565b6000813590506109fc816109d6565b92915050565b600060208284031215610a1857610a176109c2565b5b6000610a26848285016109ed565b91505092915050565b600081519050919050565b600082825260208201905092915050565b60005b83811015610a69578082015181840152602081019050610a4e565b60008484015250505050565b6000601f19601f8301169050919050565b6000610a9182610a2f565b610a9b8185610a3a565b9350610aab818560208601610a4b565b610ab481610a75565b840191505092915050565b600073ffffffffffffffffffffffffffffffffffffffff82169050919050565b6000610aea82610abf565b9050919050565b610afa81610adf565b82525050565b610b09816109cc565b82525050565b600060a0830160008301518482036000860152610b2c8282610a86565b91505060208301518482036020860152610b468282610a86565b91505060408301518482036040860152610b608282610a86565b9150506060830151610b756060860182610af1565b506080830151610b886080860182610b00565b508091505092915050565b60006020820190508181036000830152610bad8184610b0f565b905092915050565b610bbe816109cc565b82525050565b6000602082019050610bd96000830184610bb5565b92915050565b600082825260208201905092915050565b6000610bfb82610a2f565b610c058185610bdf565b9350610c15818560208601610a4b565b610c1e81610a75565b840191505092915050565b610c3281610adf565b82525050565b600060a0820190508181036000830152610c528188610bf0565b90508181036020830152610c668187610bf0565b90508181036040830152610c7a8186610bf0565b9050610c896060830185610c29565b610c966080830184610bb5565b9695505050505050565b610ca981610adf565b8114610cb457600080fd5b50565b600081359050610cc681610ca0565b92915050565b600060208284031215610ce257610ce16109c2565b5b6000610cf084828501610cb7565b91505092915050565b600081519050919050565b600082825260208201905092915050565b6000819050602082019050919050565b6000610d318383610b00565b60208301905092915050565b6000602082019050919050565b6000610d5582610cf9565b610d5f8185610d04565b9350610d6a83610d15565b8060005b83811015610d9b578151610d828882610d25565b9750610d8d83610d3d565b925050600181019050610d6e565b5085935050505092915050565b60006020820190508181036000830152610dc28184610d4a565b905092915050565b600080fd5b600080fd5b600080fd5b60008083601f840112610def57610dee610dca565b5b8235905067ffffffffffffffff811115610e0c57610e0b610dcf565b5b602083019150836001820283011115610e2857610e27610dd4565b5b9250929050565b60008060008060008060608789031215610e4c57610e4b6109c2565b5b600087013567ffffffffffffffff811115610e6a57610e696109c7565b5b610e7689828a01610dd9565b9650965050602087013567ffffffffffffffff811115610e9957610e986109c7565b5b610ea589828a01610dd9565b9450945050604087013567ffffffffffffffff811115610ec857610ec76109c7565b5b610ed489828a01610dd9565b92509250509295509295509295565b7f4e487b7100000000000000000000000000000000000000000000000000000000600052602260045260246000fd5b60006002820490506001821680610f2a57607f821691505b602082108103610f3d57610f3c610ee3565b5b50919050565b7f53747564656e7420726571756972656400000000000000000000000000000000600082015250565b6000610f79601083610bdf565b9150610f8482610f43565b602082019050919050565b60006020820190508181036000830152610fa881610f6c565b9050919050565b7f436f757273652072657175697265640000000000000000000000000000000000600082015250565b6000610fe5600f83610bdf565b9150610ff082610faf565b602082019050919050565b6000602082019050818103600083015261101481610fd8565b9050919050565b7f4f7267616e697a6174696f6e2072657175697265640000000000000000000000600082015250565b6000611051601583610bdf565b915061105c8261101b565b602082019050919050565b6000602082019050818103600083015261108081611044565b9050919050565b7f4e487b7100000000000000000000000000000000000000000000000000000000600052601160045260246000fd5b60006110c1826109cc565b91507fffffffffffffffffffffffffffffffffffffffffffffffffffffffffffffffff82036110f3576110f2611087565b5b600182019050919050565b7f4e487b7100000000000000000000000000000000000000000000000000000000600052604160045260246000fd5b60008190508160005260206000209050919050565b60006020601f8301049050919050565b600082821b905092915050565b60006008830261118f7fffffffffffffffffffffffffffffffffffffffffffffffffffffffffffffffff82611152565b6111998683611152565b95508019841693508086168417925050509392505050565b6000819050919050565b60006111d66111d16111cc846109cc565b6111b1565b6109cc565b9050919050565b6000819050919050565b6111f0836111bb565b6112046111fc826111dd565b84845461115f565b825550505050565b600090565b61121961120c565b6112248184846111e7565b505050565b5b818110156112485761123d600082611211565b60018101905061122a565b5050565b601f82111561128d5761125e8161112d565b61126784611142565b81016020851015611276578190505b61128a61128285611142565b830182611229565b50505b505050565b600082821c905092915050565b60006112b060001984600802611292565b1980831691505092915050565b60006112c9838361129f565b9150826002028217905092915050565b6112e282610a2f565b67ffffffffffffffff8111156112fb576112fa6110fe565b5b6113058254610f12565b61131082828561124c565b600060209050601f8311600181146113435760008415611331578287015190505b61133b85826112bd565b8655506113a3565b601f1984166113518661112d565b60005b8281101561137957848901518255600182019150602085019450602081019050611354565b868310156113965784890151611392601f89168261129f565b8355505b6001600288020188555050505b505050505050565b82818337600083830152505050565b60006113c68385610bdf565b93506113d38385846113ab565b6113dc83610a75565b840190509392505050565b6000608082019050818103600083015261140281898b6113ba565b905081810360208301526114178187896113ba565b9050818103604083015261142c8185876113ba565b905061143b6060830184610bb5565b9897505050505050505056fea2646970667358221220a31ab2233249608c90064a220e96f813f9e38f36989968597c3846594a311ce364736f6c634300081c0033",
  "linkReferences": {},
  "deployedLinkReferences": {}
}